{
  "_format": "hh-sol-artifact-1",
  "contractName": "ProjectDonation",
  "sourceName": "contracts/ProjectDonation.sol",
  "abi": [
    {
      "inputs": [
        {
          "internalType": "address",
          "name": "spender",
          "type": "address"
        },
        {
          "internalType": "uint256",
          "name": "allowance",
          "type": "uint256"
        },
        {
          "internalType": "uint256",
          "name": "needed",
          "type": "uint256"
        }
      ],
      "name": "ERC20InsufficientAllowance",
      "type": "error"
    },
    {
      "inputs": [
        {
          "internalType": "address",
          "name": "sender",
          "type": "address"
        },
        {
          "internalType": "uint256",
          "name": "balance",
          "type": "uint256"
        },
        {
          "internalType": "uint256",
          "name": "needed",
          "type": "uint256"
        }
      ],
      "name": "ERC20InsufficientBalance",
      "type": "error"
    },
    {
      "inputs": [
        {
          "internalType": "address",
          "name": "approver",
          "type": "address"
        }
      ],
      "name": "ERC20InvalidApprover",
      "type": "error"
    },
    {
      "inputs": [
        {
          "internalType": "address",
          "name": "receiver",
          "type": "address"
        }
      ],
      "name": "ERC20InvalidReceiver",
      "type": "error"
    },
    {
      "inputs": [
        {
          "internalType": "address",
          "name": "sender",
          "type": "address"
        }
      ],
      "name": "ERC20InvalidSender",
      "type": "error"
    },
    {
      "inputs": [
        {
          "internalType": "address",
          "name": "spender",
          "type": "address"
        }
      ],
      "name": "ERC20InvalidSpender",
      "type": "error"
    },
    {
      "inputs": [
        {
          "internalType": "address",
          "name": "owner",
          "type": "address"
        }
      ],
      "name": "OwnableInvalidOwner",
      "type": "error"
    },
    {
      "inputs": [
        {
          "internalType": "address",
          "name": "account",
          "type": "address"
        }
      ],
      "name": "OwnableUnauthorizedAccount",
      "type": "error"
    },
    {
      "anonymous": false,
      "inputs": [
        {
          "indexed": true,
          "internalType": "address",
          "name": "owner",
          "type": "address"
        },
        {
          "indexed": true,
          "internalType": "address",
          "name": "spender",
          "type": "address"
        },
        {
          "indexed": false,
          "internalType": "uint256",
          "name": "value",
          "type": "uint256"
        }
      ],
      "name": "Approval",
      "type": "event"
    },
    {
      "anonymous": false,
      "inputs": [
        {
          "indexed": true,
          "internalType": "address",
          "name": "to",
          "type": "address"
        },
        {
          "indexed": false,
          "internalType": "string",
          "name": "message",
          "type": "string"
        }
      ],
      "name": "CertificateIssued",
      "type": "event"
    },
    {
      "anonymous": false,
      "inputs": [
        {
          "indexed": true,
          "internalType": "uint256",
          "name": "projectId",
          "type": "uint256"
        },
        {
          "indexed": false,
          "internalType": "address",
          "name": "donor",
          "type": "address"
        },
        {
          "indexed": false,
          "internalType": "uint256",
          "name": "amount",
          "type": "uint256"
        }
      ],
      "name": "DonationReceived",
      "type": "event"
    },
    {
      "anonymous": false,
      "inputs": [
        {
          "indexed": true,
          "internalType": "address",
          "name": "previousOwner",
          "type": "address"
        },
        {
          "indexed": true,
          "internalType": "address",
          "name": "newOwner",
          "type": "address"
        }
      ],
      "name": "OwnershipTransferred",
      "type": "event"
    },
    {
      "anonymous": false,
      "inputs": [
        {
          "indexed": true,
          "internalType": "uint256",
          "name": "projectId",
          "type": "uint256"
        },
        {
          "indexed": false,
          "internalType": "string",
          "name": "name",
          "type": "string"
        },
        {
          "indexed": false,
          "internalType": "uint256",
          "name": "tokenRequired",
          "type": "uint256"
        }
      ],
      "name": "ProjectCreated",
      "type": "event"
    },
    {
      "anonymous": false,
      "inputs": [
        {
          "indexed": true,
          "internalType": "uint256",
          "name": "projectId",
          "type": "uint256"
        }
      ],
      "name": "ProjectFunded",
      "type": "event"
    },
    {
      "anonymous": false,
      "inputs": [
        {
          "indexed": true,
          "internalType": "address",
          "name": "from",
          "type": "address"
        },
        {
          "indexed": false,
          "internalType": "uint256",
          "name": "amount",
          "type": "uint256"
        }
      ],
      "name": "TokensBurned",
      "type": "event"
    },
    {
      "anonymous": false,
      "inputs": [
        {
          "indexed": true,
          "internalType": "address",
          "name": "to",
          "type": "address"
        },
        {
          "indexed": false,
          "internalType": "uint256",
          "name": "amount",
          "type": "uint256"
        }
      ],
      "name": "TokensMinted",
      "type": "event"
    },
    {
      "anonymous": false,
      "inputs": [
        {
          "indexed": true,
          "internalType": "address",
          "name": "from",
          "type": "address"
        },
        {
          "indexed": true,
          "internalType": "address",
          "name": "to",
          "type": "address"
        },
        {
          "indexed": false,
          "internalType": "uint256",
          "name": "value",
          "type": "uint256"
        }
      ],
      "name": "Transfer",
      "type": "event"
    },
    {
      "inputs": [
        {
          "internalType": "address",
          "name": "owner",
          "type": "address"
        },
        {
          "internalType": "address",
          "name": "spender",
          "type": "address"
        }
      ],
      "name": "allowance",
      "outputs": [
        {
          "internalType": "uint256",
          "name": "",
          "type": "uint256"
        }
      ],
      "stateMutability": "view",
      "type": "function"
    },
    {
      "inputs": [
        {
          "internalType": "address",
          "name": "spender",
          "type": "address"
        },
        {
          "internalType": "uint256",
          "name": "value",
          "type": "uint256"
        }
      ],
      "name": "approve",
      "outputs": [
        {
          "internalType": "bool",
          "name": "",
          "type": "bool"
        }
      ],
      "stateMutability": "nonpayable",
      "type": "function"
    },
    {
      "inputs": [
        {
          "internalType": "address",
          "name": "account",
          "type": "address"
        }
      ],
      "name": "balanceOf",
      "outputs": [
        {
          "internalType": "uint256",
          "name": "",
          "type": "uint256"
        }
      ],
      "stateMutability": "view",
      "type": "function"
    },
    {
      "inputs": [
        {
          "internalType": "address",
          "name": "from",
          "type": "address"
        },
        {
          "internalType": "uint256",
          "name": "amount",
          "type": "uint256"
        }
      ],
      "name": "burnTokens",
      "outputs": [],
      "stateMutability": "nonpayable",
      "type": "function"
    },
    {
      "inputs": [
        {
          "internalType": "address",
          "name": "",
          "type": "address"
        },
        {
          "internalType": "uint256",
          "name": "",
          "type": "uint256"
        }
      ],
      "name": "certificates",
      "outputs": [
        {
          "internalType": "string",
          "name": "message",
          "type": "string"
        },
        {
          "internalType": "uint256",
          "name": "timestamp",
          "type": "uint256"
        },
        {
          "internalType": "address",
          "name": "issuedTo",
          "type": "address"
        }
      ],
      "stateMutability": "view",
      "type": "function"
    },
    {
      "inputs": [
        {
          "internalType": "string",
          "name": "name",
          "type": "string"
        },
        {
          "internalType": "string",
          "name": "website",
          "type": "string"
        },
        {
          "internalType": "string",
          "name": "description",
          "type": "string"
        },
        {
          "internalType": "uint256",
          "name": "tokenRequired",
          "type": "uint256"
        }
      ],
      "name": "createProject",
      "outputs": [],
      "stateMutability": "nonpayable",
      "type": "function"
    },
    {
      "inputs": [],
      "name": "decimals",
      "outputs": [
        {
          "internalType": "uint8",
          "name": "",
          "type": "uint8"
        }
      ],
      "stateMutability": "view",
      "type": "function"
    },
    {
      "inputs": [
        {
          "internalType": "uint256",
          "name": "projectId",
          "type": "uint256"
        },
        {
          "internalType": "uint256",
          "name": "amount",
          "type": "uint256"
        }
      ],
      "name": "donateToProject",
      "outputs": [],
      "stateMutability": "nonpayable",
      "type": "function"
    },
    {
      "inputs": [],
      "name": "getActiveProjects",
      "outputs": [
        {
          "components": [
            {
              "internalType": "string",
              "name": "name",
              "type": "string"
            },
            {
              "internalType": "string",
              "name": "website",
              "type": "string"
            },
            {
              "internalType": "string",
              "name": "description",
              "type": "string"
            },
            {
              "internalType": "uint256",
              "name": "tokenRequired",
              "type": "uint256"
            },
            {
              "internalType": "uint256",
              "name": "tokenReceived",
              "type": "uint256"
            },
            {
              "internalType": "bool",
              "name": "isActive",
              "type": "bool"
            },
            {
              "internalType": "address",
              "name": "creator",
              "type": "address"
            }
          ],
          "internalType": "struct ProjectDonation.Project[]",
          "name": "",
          "type": "tuple[]"
        }
      ],
      "stateMutability": "view",
      "type": "function"
    },
    {
      "inputs": [
        {
          "internalType": "address",
          "name": "user",
          "type": "address"
        }
      ],
      "name": "getCertificates",
      "outputs": [
        {
          "components": [
            {
              "internalType": "string",
              "name": "message",
              "type": "string"
            },
            {
              "internalType": "uint256",
              "name": "timestamp",
              "type": "uint256"
            },
            {
              "internalType": "address",
              "name": "issuedTo",
              "type": "address"
            }
          ],
          "internalType": "struct CarbonToken.Certificate[]",
          "name": "",
          "type": "tuple[]"
        }
      ],
      "stateMutability": "view",
      "type": "function"
    },
    {
      "inputs": [
        {
          "internalType": "uint256",
          "name": "projectId",
          "type": "uint256"
        }
      ],
      "name": "getProject",
      "outputs": [
        {
          "components": [
            {
              "internalType": "string",
              "name": "name",
              "type": "string"
            },
            {
              "internalType": "string",
              "name": "website",
              "type": "string"
            },
            {
              "internalType": "string",
              "name": "description",
              "type": "string"
            },
            {
              "internalType": "uint256",
              "name": "tokenRequired",
              "type": "uint256"
            },
            {
              "internalType": "uint256",
              "name": "tokenReceived",
              "type": "uint256"
            },
            {
              "internalType": "bool",
              "name": "isActive",
              "type": "bool"
            },
            {
              "internalType": "address",
              "name": "creator",
              "type": "address"
            }
          ],
          "internalType": "struct ProjectDonation.Project",
          "name": "",
          "type": "tuple"
        }
      ],
      "stateMutability": "view",
      "type": "function"
    },
    {
      "inputs": [
        {
          "internalType": "address",
          "name": "to",
          "type": "address"
        },
        {
          "internalType": "uint256",
          "name": "amount",
          "type": "uint256"
        }
      ],
      "name": "mintTokens",
      "outputs": [],
      "stateMutability": "nonpayable",
      "type": "function"
    },
    {
      "inputs": [],
      "name": "name",
      "outputs": [
        {
          "internalType": "string",
          "name": "",
          "type": "string"
        }
      ],
      "stateMutability": "view",
      "type": "function"
    },
    {
      "inputs": [],
      "name": "owner",
      "outputs": [
        {
          "internalType": "address",
          "name": "",
          "type": "address"
        }
      ],
      "stateMutability": "view",
      "type": "function"
    },
    {
      "inputs": [
        {
          "internalType": "uint256",
          "name": "",
          "type": "uint256"
        }
      ],
      "name": "projects",
      "outputs": [
        {
          "internalType": "string",
          "name": "name",
          "type": "string"
        },
        {
          "internalType": "string",
          "name": "website",
          "type": "string"
        },
        {
          "internalType": "string",
          "name": "description",
          "type": "string"
        },
        {
          "internalType": "uint256",
          "name": "tokenRequired",
          "type": "uint256"
        },
        {
          "internalType": "uint256",
          "name": "tokenReceived",
          "type": "uint256"
        },
        {
          "internalType": "bool",
          "name": "isActive",
          "type": "bool"
        },
        {
          "internalType": "address",
          "name": "creator",
          "type": "address"
        }
      ],
      "stateMutability": "view",
      "type": "function"
    },
    {
      "inputs": [],
      "name": "renounceOwnership",
      "outputs": [],
      "stateMutability": "nonpayable",
      "type": "function"
    },
    {
      "inputs": [],
      "name": "symbol",
      "outputs": [
        {
          "internalType": "string",
          "name": "",
          "type": "string"
        }
      ],
      "stateMutability": "view",
      "type": "function"
    },
    {
      "inputs": [],
      "name": "totalSupply",
      "outputs": [
        {
          "internalType": "uint256",
          "name": "",
          "type": "uint256"
        }
      ],
      "stateMutability": "view",
      "type": "function"
    },
    {
      "inputs": [
        {
          "internalType": "address",
          "name": "to",
          "type": "address"
        },
        {
          "internalType": "uint256",
          "name": "value",
          "type": "uint256"
        }
      ],
      "name": "transfer",
      "outputs": [
        {
          "internalType": "bool",
          "name": "",
          "type": "bool"
        }
      ],
      "stateMutability": "nonpayable",
      "type": "function"
    },
    {
      "inputs": [
        {
          "internalType": "address",
          "name": "from",
          "type": "address"
        },
        {
          "internalType": "address",
          "name": "to",
          "type": "address"
        },
        {
          "internalType": "uint256",
          "name": "value",
          "type": "uint256"
        }
      ],
      "name": "transferFrom",
      "outputs": [
        {
          "internalType": "bool",
          "name": "",
          "type": "bool"
        }
      ],
      "stateMutability": "nonpayable",
      "type": "function"
    },
    {
      "inputs": [
        {
          "internalType": "address",
          "name": "newOwner",
          "type": "address"
        }
      ],
      "name": "transferOwnership",
      "outputs": [],
      "stateMutability": "nonpayable",
      "type": "function"
    }
  ],
  "bytecode": "0x60806040523480156200001157600080fd5b50336040518060400160405280600b81526020017f436172626f6e546f6b656e0000000000000000000000000000000000000000008152506040518060400160405280600481526020017f4341524200000000000000000000000000000000000000000000000000000000815250816003908162000090919062000472565b508060049081620000a2919062000472565b505050600073ffffffffffffffffffffffffffffffffffffffff168173ffffffffffffffffffffffffffffffffffffffff16036200011a5760006040517f1e4fbdf70000000000000000000000000000000000000000000000000000000081526004016200011191906200059e565b60405180910390fd5b6200012b816200013260201b60201c565b50620005bb565b6000600560009054906101000a900473ffffffffffffffffffffffffffffffffffffffff16905081600560006101000a81548173ffffffffffffffffffffffffffffffffffffffff021916908373ffffffffffffffffffffffffffffffffffffffff1602179055508173ffffffffffffffffffffffffffffffffffffffff168173ffffffffffffffffffffffffffffffffffffffff167f8be0079c531659141344cd1fd0a4f28419497f9722a3daafe3b4186f6b6457e060405160405180910390a35050565b600081519050919050565b7f4e487b7100000000000000000000000000000000000000000000000000000000600052604160045260246000fd5b7f4e487b7100000000000000000000000000000000000000000000000000000000600052602260045260246000fd5b600060028204905060018216806200027a57607f821691505b60208210810362000290576200028f62000232565b5b50919050565b60008190508160005260206000209050919050565b60006020601f8301049050919050565b600082821b905092915050565b600060088302620002fa7fffffffffffffffffffffffffffffffffffffffffffffffffffffffffffffffff82620002bb565b620003068683620002bb565b95508019841693508086168417925050509392505050565b6000819050919050565b6000819050919050565b6000620003536200034d62000347846200031e565b62000328565b6200031e565b9050919050565b6000819050919050565b6200036f8362000332565b620003876200037e826200035a565b848454620002c8565b825550505050565b600090565b6200039e6200038f565b620003ab81848462000364565b505050565b5b81811015620003d357620003c760008262000394565b600181019050620003b1565b5050565b601f8211156200042257620003ec8162000296565b620003f784620002ab565b8101602085101562000407578190505b6200041f6200041685620002ab565b830182620003b0565b50505b505050565b600082821c905092915050565b6000620004476000198460080262000427565b1980831691505092915050565b600062000462838362000434565b9150826002028217905092915050565b6200047d82620001f8565b67ffffffffffffffff81111562000499576200049862000203565b5b620004a5825462000261565b620004b2828285620003d7565b600060209050601f831160018114620004ea5760008415620004d5578287015190505b620004e1858262000454565b86555062000551565b601f198416620004fa8662000296565b60005b828110156200052457848901518255600182019150602085019450602081019050620004fd565b8683101562000544578489015162000540601f89168262000434565b8355505b6001600288020188555050505b505050505050565b600073ffffffffffffffffffffffffffffffffffffffff82169050919050565b6000620005868262000559565b9050919050565b620005988162000579565b82525050565b6000602082019050620005b560008301846200058d565b92915050565b61334c80620005cb6000396000f3fe608060405234801561001057600080fd5b50600436106101375760003560e01c806370a08231116100b8578063a9059cbb1161007c578063a9059cbb14610346578063dd62ed3e14610376578063f0dda65c146103a6578063f0f3f2c8146103c2578063f1c49c62146103f2578063f2fde38b1461042257610137565b806370a08231146102b4578063715018a6146102e45780638da5cb5b146102ee57806395d89b411461030c578063a5d9a5841461032a57610137565b80631ca73896116100ff5780631ca73896146101fa57806323b872dd1461021657806329cfce4114610246578063313ce5671461026457806346f3141c1461028257610137565b806306fdde031461013c578063095ea7b31461015a5780630d1118ce1461018a578063107046bd146101a657806318160ddd146101dc575b600080fd5b61014461043e565b60405161015191906121a3565b60405180910390f35b610174600480360381019061016f919061226d565b6104d0565b60405161018191906122c8565b60405180910390f35b6101a4600480360381019061019f919061226d565b6104f3565b005b6101c060048036038101906101bb91906122e3565b610561565b6040516101d3979695949392919061232e565b60405180910390f35b6101e4610778565b6040516101f191906123b2565b60405180910390f35b610214600480360381019061020f9190612502565b610782565b005b610230600480360381019061022b91906125bd565b61094d565b60405161023d91906122c8565b60405180910390f35b61024e61097c565b60405161025b91906127f3565b60405180910390f35b61026c610d31565b6040516102799190612831565b60405180910390f35b61029c6004803603810190610297919061226d565b610d3a565b6040516102ab9392919061284c565b60405180910390f35b6102ce60048036038101906102c9919061288a565b610e29565b6040516102db91906123b2565b60405180910390f35b6102ec610e71565b005b6102f6610e85565b60405161030391906128b7565b60405180910390f35b610314610eaf565b60405161032191906121a3565b60405180910390f35b610344600480360381019061033f91906128d2565b610f41565b005b610360600480360381019061035b919061226d565b61116e565b60405161036d91906122c8565b60405180910390f35b610390600480360381019061038b9190612912565b611191565b60405161039d91906123b2565b60405180910390f35b6103c060048036038101906103bb919061226d565b611218565b005b6103dc60048036038101906103d791906122e3565b61127c565b6040516103e991906129fc565b60405180910390f35b61040c6004803603810190610407919061288a565b61153a565b6040516104199190612b30565b60405180910390f35b61043c6004803603810190610437919061288a565b6116ca565b005b60606003805461044d90612b81565b80601f016020809104026020016040519081016040528092919081815260200182805461047990612b81565b80156104c65780601f1061049b576101008083540402835291602001916104c6565b820191906000526020600020905b8154815290600101906020018083116104a957829003601f168201915b5050505050905090565b6000806104db611750565b90506104e8818585611758565b600191505092915050565b6104fb61176a565b61050582826117f1565b8173ffffffffffffffffffffffffffffffffffffffff167ffd38818f5291bf0bb3a2a48aadc06ba8757865d1dabd804585338aab3009dcb68260405161054b91906123b2565b60405180910390a261055d8282611873565b5050565b6007818154811061057157600080fd5b906000526020600020906006020160009150905080600001805461059490612b81565b80601f01602080910402602001604051908101604052809291908181526020018280546105c090612b81565b801561060d5780601f106105e25761010080835404028352916020019161060d565b820191906000526020600020905b8154815290600101906020018083116105f057829003601f168201915b50505050509080600101805461062290612b81565b80601f016020809104026020016040519081016040528092919081815260200182805461064e90612b81565b801561069b5780601f106106705761010080835404028352916020019161069b565b820191906000526020600020905b81548152906001019060200180831161067e57829003601f168201915b5050505050908060020180546106b090612b81565b80601f01602080910402602001604051908101604052809291908181526020018280546106dc90612b81565b80156107295780601f106106fe57610100808354040283529160200191610729565b820191906000526020600020905b81548152906001019060200180831161070c57829003601f168201915b5050505050908060030154908060040154908060050160009054906101000a900460ff16908060050160019054906101000a900473ffffffffffffffffffffffffffffffffffffffff16905087565b6000600254905090565b600081116107c5576040517f08c379a00000000000000000000000000000000000000000000000000000000081526004016107bc90612c24565b60405180910390fd5b60076040518060e00160405280868152602001858152602001848152602001838152602001600081526020016001151581526020013373ffffffffffffffffffffffffffffffffffffffff16815250908060018154018082558091505060019003906000526020600020906006020160009091909190915060008201518160000190816108529190612df0565b5060208201518160010190816108689190612df0565b50604082015181600201908161087e9190612df0565b50606082015181600301556080820151816004015560a08201518160050160006101000a81548160ff02191690831515021790555060c08201518160050160016101000a81548173ffffffffffffffffffffffffffffffffffffffff021916908373ffffffffffffffffffffffffffffffffffffffff1602179055505050600160078054905061090e9190612ef1565b7f6245d01eb0db8df9242165c3ee1e2324367f93303d7b8f6a86e38a8767e643ae858360405161093f929190612f25565b60405180910390a250505050565b600080610958611750565b90506109658582856119f2565b610970858585611a86565b60019150509392505050565b60606000805b6007805490508110156109e357600781815481106109a3576109a2612f55565b5b906000526020600020906006020160050160009054906101000a900460ff16156109d65781806109d290612f84565b9250505b8080600101915050610982565b5060008167ffffffffffffffff811115610a00576109ff6123d7565b5b604051908082528060200260200182016040528015610a3957816020015b610a266120be565b815260200190600190039081610a1e5790505b5090506000805b600780549050811015610d275760078181548110610a6157610a60612f55565b5b906000526020600020906006020160050160009054906101000a900460ff1615610d1a5760078181548110610a9957610a98612f55565b5b90600052602060002090600602016040518060e0016040529081600082018054610ac290612b81565b80601f0160208091040260200160405190810160405280929190818152602001828054610aee90612b81565b8015610b3b5780601f10610b1057610100808354040283529160200191610b3b565b820191906000526020600020905b815481529060010190602001808311610b1e57829003601f168201915b50505050508152602001600182018054610b5490612b81565b80601f0160208091040260200160405190810160405280929190818152602001828054610b8090612b81565b8015610bcd5780601f10610ba257610100808354040283529160200191610bcd565b820191906000526020600020905b815481529060010190602001808311610bb057829003601f168201915b50505050508152602001600282018054610be690612b81565b80601f0160208091040260200160405190810160405280929190818152602001828054610c1290612b81565b8015610c5f5780601f10610c3457610100808354040283529160200191610c5f565b820191906000526020600020905b815481529060010190602001808311610c4257829003601f168201915b5050505050815260200160038201548152602001600482015481526020016005820160009054906101000a900460ff161515151581526020016005820160019054906101000a900473ffffffffffffffffffffffffffffffffffffffff1673ffffffffffffffffffffffffffffffffffffffff1673ffffffffffffffffffffffffffffffffffffffff1681525050838381518110610d0057610cff612f55565b5b60200260200101819052508180610d1690612f84565b9250505b8080600101915050610a40565b5081935050505090565b60006012905090565b60066020528160005260406000208181548110610d5657600080fd5b906000526020600020906003020160009150915050806000018054610d7a90612b81565b80601f0160208091040260200160405190810160405280929190818152602001828054610da690612b81565b8015610df35780601f10610dc857610100808354040283529160200191610df3565b820191906000526020600020905b815481529060010190602001808311610dd657829003601f168201915b5050505050908060010154908060020160009054906101000a900473ffffffffffffffffffffffffffffffffffffffff16905083565b60008060008373ffffffffffffffffffffffffffffffffffffffff1673ffffffffffffffffffffffffffffffffffffffff168152602001908152602001600020549050919050565b610e7961176a565b610e836000611b7a565b565b6000600560009054906101000a900473ffffffffffffffffffffffffffffffffffffffff16905090565b606060048054610ebe90612b81565b80601f0160208091040260200160405190810160405280929190818152602001828054610eea90612b81565b8015610f375780601f10610f0c57610100808354040283529160200191610f37565b820191906000526020600020905b815481529060010190602001808311610f1a57829003601f168201915b5050505050905090565b816007805490508110610f89576040517f08c379a0000000000000000000000000000000000000000000000000000000008152600401610f8090613018565b60405180910390fd5b60078181548110610f9d57610f9c612f55565b5b906000526020600020906006020160050160009054906101000a900460ff16610ffb576040517f08c379a0000000000000000000000000000000000000000000000000000000008152600401610ff290613084565b60405180910390fd5b60006007848154811061101157611010612f55565b5b9060005260206000209060060201905060008311611064576040517f08c379a000000000000000000000000000000000000000000000000000000000815260040161105b90613116565b60405180910390fd5b6000808260040154836003015461107b9190612ef1565b9050808511156110975780856110919190612ef1565b91508094505b6110a2333087611a86565b848360040160008282546110b69190613136565b92505081905550857f0b5b4c52969ff7329ecf7ee536409fda87812b15a8622bc6e8cdeab3aee14a2633876040516110ef92919061316a565b60405180910390a282600301548360040154106111515760008360050160006101000a81548160ff021916908315150217905550857f2301e0a2ad8f6e28a7fbb09e96f5c14e588fac346ed5ce607e1a018bc768864660405160405180910390a25b600082111561116657611165303384611a86565b5b505050505050565b600080611179611750565b9050611186818585611a86565b600191505092915050565b6000600160008473ffffffffffffffffffffffffffffffffffffffff1673ffffffffffffffffffffffffffffffffffffffff16815260200190815260200160002060008373ffffffffffffffffffffffffffffffffffffffff1673ffffffffffffffffffffffffffffffffffffffff16815260200190815260200160002054905092915050565b61122061176a565b61122a8282611c40565b8173ffffffffffffffffffffffffffffffffffffffff167f3f2c9d57c068687834f0de942a9babb9e5acab57d516d3480a3c16ee165a42738260405161127091906123b2565b60405180910390a25050565b6112846120be565b60078054905082106112cb576040517f08c379a00000000000000000000000000000000000000000000000000000000081526004016112c290613018565b60405180910390fd5b600782815481106112df576112de612f55565b5b90600052602060002090600602016040518060e001604052908160008201805461130890612b81565b80601f016020809104026020016040519081016040528092919081815260200182805461133490612b81565b80156113815780601f1061135657610100808354040283529160200191611381565b820191906000526020600020905b81548152906001019060200180831161136457829003601f168201915b5050505050815260200160018201805461139a90612b81565b80601f01602080910402602001604051908101604052809291908181526020018280546113c690612b81565b80156114135780601f106113e857610100808354040283529160200191611413565b820191906000526020600020905b8154815290600101906020018083116113f657829003601f168201915b5050505050815260200160028201805461142c90612b81565b80601f016020809104026020016040519081016040528092919081815260200182805461145890612b81565b80156114a55780601f1061147a576101008083540402835291602001916114a5565b820191906000526020600020905b81548152906001019060200180831161148857829003601f168201915b5050505050815260200160038201548152602001600482015481526020016005820160009054906101000a900460ff161515151581526020016005820160019054906101000a900473ffffffffffffffffffffffffffffffffffffffff1673ffffffffffffffffffffffffffffffffffffffff1673ffffffffffffffffffffffffffffffffffffffff16815250509050919050565b6060600660008373ffffffffffffffffffffffffffffffffffffffff1673ffffffffffffffffffffffffffffffffffffffff168152602001908152602001600020805480602002602001604051908101604052809291908181526020016000905b828210156116bf57838290600052602060002090600302016040518060600160405290816000820180546115ce90612b81565b80601f01602080910402602001604051908101604052809291908181526020018280546115fa90612b81565b80156116475780601f1061161c57610100808354040283529160200191611647565b820191906000526020600020905b81548152906001019060200180831161162a57829003601f168201915b50505050508152602001600182015481526020016002820160009054906101000a900473ffffffffffffffffffffffffffffffffffffffff1673ffffffffffffffffffffffffffffffffffffffff1673ffffffffffffffffffffffffffffffffffffffff16815250508152602001906001019061159b565b505050509050919050565b6116d261176a565b600073ffffffffffffffffffffffffffffffffffffffff168173ffffffffffffffffffffffffffffffffffffffff16036117445760006040517f1e4fbdf700000000000000000000000000000000000000000000000000000000815260040161173b91906128b7565b60405180910390fd5b61174d81611b7a565b50565b600033905090565b6117658383836001611cc2565b505050565b611772611750565b73ffffffffffffffffffffffffffffffffffffffff16611790610e85565b73ffffffffffffffffffffffffffffffffffffffff16146117ef576117b3611750565b6040517f118cdaa70000000000000000000000000000000000000000000000000000000081526004016117e691906128b7565b60405180910390fd5b565b600073ffffffffffffffffffffffffffffffffffffffff168273ffffffffffffffffffffffffffffffffffffffff16036118635760006040517f96c6fd1e00000000000000000000000000000000000000000000000000000000815260040161185a91906128b7565b60405180910390fd5b61186f82600083611e99565b5050565b60008160405160200161188691906132a3565b6040516020818303038152906040529050600060405180606001604052808381526020014281526020018573ffffffffffffffffffffffffffffffffffffffff168152509050600660008573ffffffffffffffffffffffffffffffffffffffff1673ffffffffffffffffffffffffffffffffffffffff168152602001908152602001600020819080600181540180825580915050600190039060005260206000209060030201600090919091909150600082015181600001908161194a9190612df0565b506020820151816001015560408201518160020160006101000a81548173ffffffffffffffffffffffffffffffffffffffff021916908373ffffffffffffffffffffffffffffffffffffffff16021790555050508373ffffffffffffffffffffffffffffffffffffffff167f4514a45e6f56567008e790fe2158e66d34e8b8254c060ad061d5702748791479836040516119e491906121a3565b60405180910390a250505050565b60006119fe8484611191565b90507fffffffffffffffffffffffffffffffffffffffffffffffffffffffffffffffff8114611a805781811015611a70578281836040517ffb8f41b2000000000000000000000000000000000000000000000000000000008152600401611a67939291906132df565b60405180910390fd5b611a7f84848484036000611cc2565b5b50505050565b600073ffffffffffffffffffffffffffffffffffffffff168373ffffffffffffffffffffffffffffffffffffffff1603611af85760006040517f96c6fd1e000000000000000000000000000000000000000000000000000000008152600401611aef91906128b7565b60405180910390fd5b600073ffffffffffffffffffffffffffffffffffffffff168273ffffffffffffffffffffffffffffffffffffffff1603611b6a5760006040517fec442f05000000000000000000000000000000000000000000000000000000008152600401611b6191906128b7565b60405180910390fd5b611b75838383611e99565b505050565b6000600560009054906101000a900473ffffffffffffffffffffffffffffffffffffffff16905081600560006101000a81548173ffffffffffffffffffffffffffffffffffffffff021916908373ffffffffffffffffffffffffffffffffffffffff1602179055508173ffffffffffffffffffffffffffffffffffffffff168173ffffffffffffffffffffffffffffffffffffffff167f8be0079c531659141344cd1fd0a4f28419497f9722a3daafe3b4186f6b6457e060405160405180910390a35050565b600073ffffffffffffffffffffffffffffffffffffffff168273ffffffffffffffffffffffffffffffffffffffff1603611cb25760006040517fec442f05000000000000000000000000000000000000000000000000000000008152600401611ca991906128b7565b60405180910390fd5b611cbe60008383611e99565b5050565b600073ffffffffffffffffffffffffffffffffffffffff168473ffffffffffffffffffffffffffffffffffffffff1603611d345760006040517fe602df05000000000000000000000000000000000000000000000000000000008152600401611d2b91906128b7565b60405180910390fd5b600073ffffffffffffffffffffffffffffffffffffffff168373ffffffffffffffffffffffffffffffffffffffff1603611da65760006040517f94280d62000000000000000000000000000000000000000000000000000000008152600401611d9d91906128b7565b60405180910390fd5b81600160008673ffffffffffffffffffffffffffffffffffffffff1673ffffffffffffffffffffffffffffffffffffffff16815260200190815260200160002060008573ffffffffffffffffffffffffffffffffffffffff1673ffffffffffffffffffffffffffffffffffffffff168152602001908152602001600020819055508015611e93578273ffffffffffffffffffffffffffffffffffffffff168473ffffffffffffffffffffffffffffffffffffffff167f8c5be1e5ebec7d5bd14f71427d1e84f3dd0314c0f7b2291e5b200ac8c7c3b92584604051611e8a91906123b2565b60405180910390a35b50505050565b600073ffffffffffffffffffffffffffffffffffffffff168373ffffffffffffffffffffffffffffffffffffffff1603611eeb578060026000828254611edf9190613136565b92505081905550611fbe565b60008060008573ffffffffffffffffffffffffffffffffffffffff1673ffffffffffffffffffffffffffffffffffffffff16815260200190815260200160002054905081811015611f77578381836040517fe450d38c000000000000000000000000000000000000000000000000000000008152600401611f6e939291906132df565b60405180910390fd5b8181036000808673ffffffffffffffffffffffffffffffffffffffff1673ffffffffffffffffffffffffffffffffffffffff16815260200190815260200160002081905550505b600073ffffffffffffffffffffffffffffffffffffffff168273ffffffffffffffffffffffffffffffffffffffff16036120075780600260008282540392505081905550612054565b806000808473ffffffffffffffffffffffffffffffffffffffff1673ffffffffffffffffffffffffffffffffffffffff168152602001908152602001600020600082825401925050819055505b8173ffffffffffffffffffffffffffffffffffffffff168373ffffffffffffffffffffffffffffffffffffffff167fddf252ad1be2c89b69c2b068fc378daa952ba7f163c4a11628f55a4df523b3ef836040516120b191906123b2565b60405180910390a3505050565b6040518060e001604052806060815260200160608152602001606081526020016000815260200160008152602001600015158152602001600073ffffffffffffffffffffffffffffffffffffffff1681525090565b600081519050919050565b600082825260208201905092915050565b60005b8381101561214d578082015181840152602081019050612132565b60008484015250505050565b6000601f19601f8301169050919050565b600061217582612113565b61217f818561211e565b935061218f81856020860161212f565b61219881612159565b840191505092915050565b600060208201905081810360008301526121bd818461216a565b905092915050565b6000604051905090565b600080fd5b600080fd5b600073ffffffffffffffffffffffffffffffffffffffff82169050919050565b6000612204826121d9565b9050919050565b612214816121f9565b811461221f57600080fd5b50565b6000813590506122318161220b565b92915050565b6000819050919050565b61224a81612237565b811461225557600080fd5b50565b60008135905061226781612241565b92915050565b60008060408385031215612284576122836121cf565b5b600061229285828601612222565b92505060206122a385828601612258565b9150509250929050565b60008115159050919050565b6122c2816122ad565b82525050565b60006020820190506122dd60008301846122b9565b92915050565b6000602082840312156122f9576122f86121cf565b5b600061230784828501612258565b91505092915050565b61231981612237565b82525050565b612328816121f9565b82525050565b600060e0820190508181036000830152612348818a61216a565b9050818103602083015261235c818961216a565b90508181036040830152612370818861216a565b905061237f6060830187612310565b61238c6080830186612310565b61239960a08301856122b9565b6123a660c083018461231f565b98975050505050505050565b60006020820190506123c76000830184612310565b92915050565b600080fd5b600080fd5b7f4e487b7100000000000000000000000000000000000000000000000000000000600052604160045260246000fd5b61240f82612159565b810181811067ffffffffffffffff8211171561242e5761242d6123d7565b5b80604052505050565b60006124416121c5565b905061244d8282612406565b919050565b600067ffffffffffffffff82111561246d5761246c6123d7565b5b61247682612159565b9050602081019050919050565b82818337600083830152505050565b60006124a56124a084612452565b612437565b9050828152602081018484840111156124c1576124c06123d2565b5b6124cc848285612483565b509392505050565b600082601f8301126124e9576124e86123cd565b5b81356124f9848260208601612492565b91505092915050565b6000806000806080858703121561251c5761251b6121cf565b5b600085013567ffffffffffffffff81111561253a576125396121d4565b5b612546878288016124d4565b945050602085013567ffffffffffffffff811115612567576125666121d4565b5b612573878288016124d4565b935050604085013567ffffffffffffffff811115612594576125936121d4565b5b6125a0878288016124d4565b92505060606125b187828801612258565b91505092959194509250565b6000806000606084860312156125d6576125d56121cf565b5b60006125e486828701612222565b93505060206125f586828701612222565b925050604061260686828701612258565b9150509250925092565b600081519050919050565b600082825260208201905092915050565b6000819050602082019050919050565b600082825260208201905092915050565b600061265882612113565b612662818561263c565b935061267281856020860161212f565b61267b81612159565b840191505092915050565b61268f81612237565b82525050565b61269e816122ad565b82525050565b6126ad816121f9565b82525050565b600060e08301600083015184820360008601526126d0828261264d565b915050602083015184820360208601526126ea828261264d565b91505060408301518482036040860152612704828261264d565b91505060608301516127196060860182612686565b50608083015161272c6080860182612686565b5060a083015161273f60a0860182612695565b5060c083015161275260c08601826126a4565b508091505092915050565b600061276983836126b3565b905092915050565b6000602082019050919050565b600061278982612610565b612793818561261b565b9350836020820285016127a58561262c565b8060005b858110156127e157848403895281516127c2858261275d565b94506127cd83612771565b925060208a019950506001810190506127a9565b50829750879550505050505092915050565b6000602082019050818103600083015261280d818461277e565b905092915050565b600060ff82169050919050565b61282b81612815565b82525050565b60006020820190506128466000830184612822565b92915050565b60006060820190508181036000830152612866818661216a565b90506128756020830185612310565b612882604083018461231f565b949350505050565b6000602082840312156128a05761289f6121cf565b5b60006128ae84828501612222565b91505092915050565b60006020820190506128cc600083018461231f565b92915050565b600080604083850312156128e9576128e86121cf565b5b60006128f785828601612258565b925050602061290885828601612258565b9150509250929050565b60008060408385031215612929576129286121cf565b5b600061293785828601612222565b925050602061294885828601612222565b9150509250929050565b600060e083016000830151848203600086015261296f828261264d565b91505060208301518482036020860152612989828261264d565b915050604083015184820360408601526129a3828261264d565b91505060608301516129b86060860182612686565b5060808301516129cb6080860182612686565b5060a08301516129de60a0860182612695565b5060c08301516129f160c08601826126a4565b508091505092915050565b60006020820190508181036000830152612a168184612952565b905092915050565b600081519050919050565b600082825260208201905092915050565b6000819050602082019050919050565b60006060830160008301518482036000860152612a67828261264d565b9150506020830151612a7c6020860182612686565b506040830151612a8f60408601826126a4565b508091505092915050565b6000612aa68383612a4a565b905092915050565b6000602082019050919050565b6000612ac682612a1e565b612ad08185612a29565b935083602082028501612ae285612a3a565b8060005b85811015612b1e5784840389528151612aff8582612a9a565b9450612b0a83612aae565b925060208a01995050600181019050612ae6565b50829750879550505050505092915050565b60006020820190508181036000830152612b4a8184612abb565b905092915050565b7f4e487b7100000000000000000000000000000000000000000000000000000000600052602260045260246000fd5b60006002820490506001821680612b9957607f821691505b602082108103612bac57612bab612b52565b5b50919050565b7f546f6b656e20726571756972656d656e74206d7573742062652067726561746560008201527f72207468616e207a65726f2e0000000000000000000000000000000000000000602082015250565b6000612c0e602c8361211e565b9150612c1982612bb2565b604082019050919050565b60006020820190508181036000830152612c3d81612c01565b9050919050565b60008190508160005260206000209050919050565b60006020601f8301049050919050565b600082821b905092915050565b600060088302612ca67fffffffffffffffffffffffffffffffffffffffffffffffffffffffffffffffff82612c69565b612cb08683612c69565b95508019841693508086168417925050509392505050565b6000819050919050565b6000612ced612ce8612ce384612237565b612cc8565b612237565b9050919050565b6000819050919050565b612d0783612cd2565b612d1b612d1382612cf4565b848454612c76565b825550505050565b600090565b612d30612d23565b612d3b818484612cfe565b505050565b5b81811015612d5f57612d54600082612d28565b600181019050612d41565b5050565b601f821115612da457612d7581612c44565b612d7e84612c59565b81016020851015612d8d578190505b612da1612d9985612c59565b830182612d40565b50505b505050565b600082821c905092915050565b6000612dc760001984600802612da9565b1980831691505092915050565b6000612de08383612db6565b9150826002028217905092915050565b612df982612113565b67ffffffffffffffff811115612e1257612e116123d7565b5b612e1c8254612b81565b612e27828285612d63565b600060209050601f831160018114612e5a5760008415612e48578287015190505b612e528582612dd4565b865550612eba565b601f198416612e6886612c44565b60005b82811015612e9057848901518255600182019150602085019450602081019050612e6b565b86831015612ead5784890151612ea9601f891682612db6565b8355505b6001600288020188555050505b505050505050565b7f4e487b7100000000000000000000000000000000000000000000000000000000600052601160045260246000fd5b6000612efc82612237565b9150612f0783612237565b9250828203905081811115612f1f57612f1e612ec2565b5b92915050565b60006040820190508181036000830152612f3f818561216a565b9050612f4e6020830184612310565b9392505050565b7f4e487b7100000000000000000000000000000000000000000000000000000000600052603260045260246000fd5b6000612f8f82612237565b91507fffffffffffffffffffffffffffffffffffffffffffffffffffffffffffffffff8203612fc157612fc0612ec2565b5b600182019050919050565b7f50726f6a65637420646f6573206e6f742065786973742e000000000000000000600082015250565b600061300260178361211e565b915061300d82612fcc565b602082019050919050565b6000602082019050818103600083015261303181612ff5565b9050919050565b7f50726f6a656374206973206e6f74206163746976652e00000000000000000000600082015250565b600061306e60168361211e565b915061307982613038565b602082019050919050565b6000602082019050818103600083015261309d81613061565b9050919050565b7f446f6e6174696f6e206d7573742062652067726561746572207468616e207a6560008201527f726f2e0000000000000000000000000000000000000000000000000000000000602082015250565b600061310060238361211e565b915061310b826130a4565b604082019050919050565b6000602082019050818103600083015261312f816130f3565b9050919050565b600061314182612237565b915061314c83612237565b925082820190508082111561316457613163612ec2565b5b92915050565b600060408201905061317f600083018561231f565b61318c6020830184612310565b9392505050565b600081905092915050565b7f43657274696669636174653a2000000000000000000000000000000000000000600082015250565b60006131d4600d83613193565b91506131df8261319e565b600d82019050919050565b7f50726f6a65637420617070726f7665642e200000000000000000000000000000600082015250565b6000613220601283613193565b915061322b826131ea565b601282019050919050565b6000819050919050565b61325161324c82612237565b613236565b82525050565b7f20746f6b656e73206275726e6564207375636365737366756c6c792e00000000600082015250565b600061328d601c83613193565b915061329882613257565b601c82019050919050565b60006132ae826131c7565b91506132b982613213565b91506132c58284613240565b6020820191506132d482613280565b915081905092915050565b60006060820190506132f4600083018661231f565b6133016020830185612310565b61330e6040830184612310565b94935050505056fea26469706673582212203df759e034eb9e4b4657e88fcab26b593372db2a6f4dc8e6c392f54999f65faf64736f6c63430008180033",
  "linkReferences": {},
  "deployedLinkReferences": {}
}