{
  "_format": "hh-sol-artifact-1",
  "contractName": "ProjectNFT",
  "sourceName": "contracts/ProjectNFT.sol",
  "abi": [
    {
      "inputs": [],
      "stateMutability": "nonpayable",
      "type": "constructor"
    },
    {
      "inputs": [
        {
          "internalType": "address",
          "name": "sender",
          "type": "address"
        },
        {
          "internalType": "uint256",
          "name": "tokenId",
          "type": "uint256"
        },
        {
          "internalType": "address",
          "name": "owner",
          "type": "address"
        }
      ],
      "name": "ERC721IncorrectOwner",
      "type": "error"
    },
    {
      "inputs": [
        {
          "internalType": "address",
          "name": "operator",
          "type": "address"
        },
        {
          "internalType": "uint256",
          "name": "tokenId",
          "type": "uint256"
        }
      ],
      "name": "ERC721InsufficientApproval",
      "type": "error"
    },
    {
      "inputs": [
        {
          "internalType": "address",
          "name": "approver",
          "type": "address"
        }
      ],
      "name": "ERC721InvalidApprover",
      "type": "error"
    },
    {
      "inputs": [
        {
          "internalType": "address",
          "name": "operator",
          "type": "address"
        }
      ],
      "name": "ERC721InvalidOperator",
      "type": "error"
    },
    {
      "inputs": [
        {
          "internalType": "address",
          "name": "owner",
          "type": "address"
        }
      ],
      "name": "ERC721InvalidOwner",
      "type": "error"
    },
    {
      "inputs": [
        {
          "internalType": "address",
          "name": "receiver",
          "type": "address"
        }
      ],
      "name": "ERC721InvalidReceiver",
      "type": "error"
    },
    {
      "inputs": [
        {
          "internalType": "address",
          "name": "sender",
          "type": "address"
        }
      ],
      "name": "ERC721InvalidSender",
      "type": "error"
    },
    {
      "inputs": [
        {
          "internalType": "uint256",
          "name": "tokenId",
          "type": "uint256"
        }
      ],
      "name": "ERC721NonexistentToken",
      "type": "error"
    },
    {
      "anonymous": false,
      "inputs": [
        {
          "indexed": true,
          "internalType": "address",
          "name": "owner",
          "type": "address"
        },
        {
          "indexed": true,
          "internalType": "address",
          "name": "approved",
          "type": "address"
        },
        {
          "indexed": true,
          "internalType": "uint256",
          "name": "tokenId",
          "type": "uint256"
        }
      ],
      "name": "Approval",
      "type": "event"
    },
    {
      "anonymous": false,
      "inputs": [
        {
          "indexed": true,
          "internalType": "address",
          "name": "owner",
          "type": "address"
        },
        {
          "indexed": true,
          "internalType": "address",
          "name": "operator",
          "type": "address"
        },
        {
          "indexed": false,
          "internalType": "bool",
          "name": "approved",
          "type": "bool"
        }
      ],
      "name": "ApprovalForAll",
      "type": "event"
    },
    {
      "anonymous": false,
      "inputs": [
        {
          "indexed": false,
          "internalType": "uint256",
          "name": "_fromTokenId",
          "type": "uint256"
        },
        {
          "indexed": false,
          "internalType": "uint256",
          "name": "_toTokenId",
          "type": "uint256"
        }
      ],
      "name": "BatchMetadataUpdate",
      "type": "event"
    },
    {
      "anonymous": false,
      "inputs": [
        {
          "indexed": false,
          "internalType": "uint256",
          "name": "_tokenId",
          "type": "uint256"
        }
      ],
      "name": "MetadataUpdate",
      "type": "event"
    },
    {
      "anonymous": false,
      "inputs": [
        {
          "indexed": true,
          "internalType": "uint256",
          "name": "tokenId",
          "type": "uint256"
        },
        {
          "indexed": true,
          "internalType": "address",
          "name": "creator",
          "type": "address"
        },
        {
          "indexed": false,
          "internalType": "string",
          "name": "name",
          "type": "string"
        },
        {
          "indexed": false,
          "internalType": "string",
          "name": "description",
          "type": "string"
        },
        {
          "indexed": false,
          "internalType": "string",
          "name": "ipfsHash",
          "type": "string"
        },
        {
          "indexed": false,
          "internalType": "uint256",
          "name": "price",
          "type": "uint256"
        }
      ],
      "name": "ProjectNFTCreated",
      "type": "event"
    },
    {
      "anonymous": false,
      "inputs": [
        {
          "indexed": true,
          "internalType": "address",
          "name": "from",
          "type": "address"
        },
        {
          "indexed": true,
          "internalType": "address",
          "name": "to",
          "type": "address"
        },
        {
          "indexed": true,
          "internalType": "uint256",
          "name": "tokenId",
          "type": "uint256"
        }
      ],
      "name": "Transfer",
      "type": "event"
    },
    {
      "inputs": [
        {
          "internalType": "address",
          "name": "to",
          "type": "address"
        },
        {
          "internalType": "uint256",
          "name": "tokenId",
          "type": "uint256"
        }
      ],
      "name": "approve",
      "outputs": [],
      "stateMutability": "nonpayable",
      "type": "function"
    },
    {
      "inputs": [
        {
          "internalType": "address",
          "name": "owner",
          "type": "address"
        }
      ],
      "name": "balanceOf",
      "outputs": [
        {
          "internalType": "uint256",
          "name": "",
          "type": "uint256"
        }
      ],
      "stateMutability": "view",
      "type": "function"
    },
    {
      "inputs": [
        {
          "internalType": "uint256",
          "name": "tokenId",
          "type": "uint256"
        }
      ],
      "name": "buyNFT",
      "outputs": [],
      "stateMutability": "payable",
      "type": "function"
    },
    {
      "inputs": [
        {
          "internalType": "string",
          "name": "name",
          "type": "string"
        },
        {
          "internalType": "string",
          "name": "description",
          "type": "string"
        },
        {
          "internalType": "string",
          "name": "ipfsHash",
          "type": "string"
        },
        {
          "internalType": "uint256",
          "name": "priceInWei",
          "type": "uint256"
        }
      ],
      "name": "createProjectNFT",
      "outputs": [
        {
          "internalType": "uint256",
          "name": "",
          "type": "uint256"
        }
      ],
      "stateMutability": "nonpayable",
      "type": "function"
    },
    {
      "inputs": [
        {
          "internalType": "uint256",
          "name": "tokenId",
          "type": "uint256"
        }
      ],
      "name": "getApproved",
      "outputs": [
        {
          "internalType": "address",
          "name": "",
          "type": "address"
        }
      ],
      "stateMutability": "view",
      "type": "function"
    },
    {
      "inputs": [
        {
          "internalType": "address",
          "name": "owner",
          "type": "address"
        }
      ],
      "name": "getOwnedNFTsWithDetails",
      "outputs": [
        {
          "components": [
            {
              "internalType": "string",
              "name": "name",
              "type": "string"
            },
            {
              "internalType": "string",
              "name": "description",
              "type": "string"
            },
            {
              "internalType": "string",
              "name": "ipfsHash",
              "type": "string"
            },
            {
              "internalType": "uint256",
              "name": "price",
              "type": "uint256"
            }
          ],
          "internalType": "struct ProjectNFT.Project[]",
          "name": "",
          "type": "tuple[]"
        }
      ],
      "stateMutability": "view",
      "type": "function"
    },
    {
      "inputs": [
        {
          "internalType": "uint256",
          "name": "tokenId",
          "type": "uint256"
        }
      ],
      "name": "getProjectDetails",
      "outputs": [
        {
          "internalType": "string",
          "name": "",
          "type": "string"
        },
        {
          "internalType": "string",
          "name": "",
          "type": "string"
        },
        {
          "internalType": "string",
          "name": "",
          "type": "string"
        },
        {
          "internalType": "uint256",
          "name": "",
          "type": "uint256"
        }
      ],
      "stateMutability": "view",
      "type": "function"
    },
    {
      "inputs": [
        {
          "internalType": "address",
          "name": "owner",
          "type": "address"
        },
        {
          "internalType": "address",
          "name": "operator",
          "type": "address"
        }
      ],
      "name": "isApprovedForAll",
      "outputs": [
        {
          "internalType": "bool",
          "name": "",
          "type": "bool"
        }
      ],
      "stateMutability": "view",
      "type": "function"
    },
    {
      "inputs": [],
      "name": "listAllNFTs",
      "outputs": [
        {
          "internalType": "uint256[]",
          "name": "",
          "type": "uint256[]"
        },
        {
          "components": [
            {
              "internalType": "string",
              "name": "name",
              "type": "string"
            },
            {
              "internalType": "string",
              "name": "description",
              "type": "string"
            },
            {
              "internalType": "string",
              "name": "ipfsHash",
              "type": "string"
            },
            {
              "internalType": "uint256",
              "name": "price",
              "type": "uint256"
            }
          ],
          "internalType": "struct ProjectNFT.Project[]",
          "name": "",
          "type": "tuple[]"
        }
      ],
      "stateMutability": "view",
      "type": "function"
    },
    {
      "inputs": [],
      "name": "name",
      "outputs": [
        {
          "internalType": "string",
          "name": "",
          "type": "string"
        }
      ],
      "stateMutability": "view",
      "type": "function"
    },
    {
      "inputs": [
        {
          "internalType": "uint256",
          "name": "tokenId",
          "type": "uint256"
        }
      ],
      "name": "ownerOf",
      "outputs": [
        {
          "internalType": "address",
          "name": "",
          "type": "address"
        }
      ],
      "stateMutability": "view",
      "type": "function"
    },
    {
      "inputs": [
        {
          "internalType": "uint256",
          "name": "",
          "type": "uint256"
        }
      ],
      "name": "projectCreators",
      "outputs": [
        {
          "internalType": "address",
          "name": "",
          "type": "address"
        }
      ],
      "stateMutability": "view",
      "type": "function"
    },
    {
      "inputs": [
        {
          "internalType": "uint256",
          "name": "",
          "type": "uint256"
        }
      ],
      "name": "projects",
      "outputs": [
        {
          "internalType": "string",
          "name": "name",
          "type": "string"
        },
        {
          "internalType": "string",
          "name": "description",
          "type": "string"
        },
        {
          "internalType": "string",
          "name": "ipfsHash",
          "type": "string"
        },
        {
          "internalType": "uint256",
          "name": "price",
          "type": "uint256"
        }
      ],
      "stateMutability": "view",
      "type": "function"
    },
    {
      "inputs": [
        {
          "internalType": "address",
          "name": "from",
          "type": "address"
        },
        {
          "internalType": "address",
          "name": "to",
          "type": "address"
        },
        {
          "internalType": "uint256",
          "name": "tokenId",
          "type": "uint256"
        }
      ],
      "name": "safeTransferFrom",
      "outputs": [],
      "stateMutability": "nonpayable",
      "type": "function"
    },
    {
      "inputs": [
        {
          "internalType": "address",
          "name": "from",
          "type": "address"
        },
        {
          "internalType": "address",
          "name": "to",
          "type": "address"
        },
        {
          "internalType": "uint256",
          "name": "tokenId",
          "type": "uint256"
        },
        {
          "internalType": "bytes",
          "name": "data",
          "type": "bytes"
        }
      ],
      "name": "safeTransferFrom",
      "outputs": [],
      "stateMutability": "nonpayable",
      "type": "function"
    },
    {
      "inputs": [
        {
          "internalType": "address",
          "name": "operator",
          "type": "address"
        },
        {
          "internalType": "bool",
          "name": "approved",
          "type": "bool"
        }
      ],
      "name": "setApprovalForAll",
      "outputs": [],
      "stateMutability": "nonpayable",
      "type": "function"
    },
    {
      "inputs": [
        {
          "internalType": "bytes4",
          "name": "interfaceId",
          "type": "bytes4"
        }
      ],
      "name": "supportsInterface",
      "outputs": [
        {
          "internalType": "bool",
          "name": "",
          "type": "bool"
        }
      ],
      "stateMutability": "view",
      "type": "function"
    },
    {
      "inputs": [],
      "name": "symbol",
      "outputs": [
        {
          "internalType": "string",
          "name": "",
          "type": "string"
        }
      ],
      "stateMutability": "view",
      "type": "function"
    },
    {
      "inputs": [
        {
          "internalType": "uint256",
          "name": "tokenId",
          "type": "uint256"
        }
      ],
      "name": "tokenURI",
      "outputs": [
        {
          "internalType": "string",
          "name": "",
          "type": "string"
        }
      ],
      "stateMutability": "view",
      "type": "function"
    },
    {
      "inputs": [
        {
          "internalType": "address",
          "name": "from",
          "type": "address"
        },
        {
          "internalType": "address",
          "name": "to",
          "type": "address"
        },
        {
          "internalType": "uint256",
          "name": "tokenId",
          "type": "uint256"
        }
      ],
      "name": "transferFrom",
      "outputs": [],
      "stateMutability": "nonpayable",
      "type": "function"
    }
  ],
  "bytecode": "0x60806040523480156200001157600080fd5b506040518060400160405280600a81526020017f50726f6a6563744e4654000000000000000000000000000000000000000000008152506040518060400160405280600481526020017f504e46540000000000000000000000000000000000000000000000000000000081525081600090816200008f919062000324565b508060019081620000a1919062000324565b5050506200040b565b600081519050919050565b7f4e487b7100000000000000000000000000000000000000000000000000000000600052604160045260246000fd5b7f4e487b7100000000000000000000000000000000000000000000000000000000600052602260045260246000fd5b600060028204905060018216806200012c57607f821691505b602082108103620001425762000141620000e4565b5b50919050565b60008190508160005260206000209050919050565b60006020601f8301049050919050565b600082821b905092915050565b600060088302620001ac7fffffffffffffffffffffffffffffffffffffffffffffffffffffffffffffffff826200016d565b620001b886836200016d565b95508019841693508086168417925050509392505050565b6000819050919050565b6000819050919050565b600062000205620001ff620001f984620001d0565b620001da565b620001d0565b9050919050565b6000819050919050565b6200022183620001e4565b6200023962000230826200020c565b8484546200017a565b825550505050565b600090565b6200025062000241565b6200025d81848462000216565b505050565b5b8181101562000285576200027960008262000246565b60018101905062000263565b5050565b601f821115620002d4576200029e8162000148565b620002a9846200015d565b81016020851015620002b9578190505b620002d1620002c8856200015d565b83018262000262565b50505b505050565b600082821c905092915050565b6000620002f960001984600802620002d9565b1980831691505092915050565b6000620003148383620002e6565b9150826002028217905092915050565b6200032f82620000aa565b67ffffffffffffffff8111156200034b576200034a620000b5565b5b62000357825462000113565b6200036482828562000289565b600060209050601f8311600181146200039c576000841562000387578287015190505b62000393858262000306565b86555062000403565b601f198416620003ac8662000148565b60005b82811015620003d657848901518255600182019150602085019450602081019050620003af565b86831015620003f65784890151620003f2601f891682620002e6565b8355505b6001600288020188555050505b505050505050565b613fbb806200041b6000396000f3fe60806040526004361061011f5760003560e01c80636352211e116100a0578063a22cb46511610064578063a22cb4651461042b578063b88d4fde14610454578063c87b56dd1461047d578063e985e9c5146104ba578063f63ef2a7146104f75761011f565b80636352211e1461031d5780636dbaedc51461035a57806370a082311461039757806381ebc2c8146103d457806395d89b41146104005761011f565b806323b872dd116100e757806323b872dd14610232578063328070431461025b57806342842e0e1461029857806351ed8288146102c15780635f8439e3146102dd5761011f565b806301ffc9a71461012457806306fdde0314610161578063081812fc1461018c578063095ea7b3146101c9578063107046bd146101f2575b600080fd5b34801561013057600080fd5b5061014b60048036038101906101469190612dac565b610534565b6040516101589190612df4565b60405180910390f35b34801561016d57600080fd5b50610176610595565b6040516101839190612e9f565b60405180910390f35b34801561019857600080fd5b506101b360048036038101906101ae9190612ef7565b610627565b6040516101c09190612f65565b60405180910390f35b3480156101d557600080fd5b506101f060048036038101906101eb9190612fac565b610643565b005b3480156101fe57600080fd5b5061021960048036038101906102149190612ef7565b610659565b6040516102299493929190612ffb565b60405180910390f35b34801561023e57600080fd5b5061025960048036038101906102549190613055565b610821565b005b34801561026757600080fd5b50610282600480360381019061027d91906131dd565b610923565b60405161028f9190613298565b60405180910390f35b3480156102a457600080fd5b506102bf60048036038101906102ba9190613055565b610c02565b005b6102db60048036038101906102d69190612ef7565b610c22565b005b3480156102e957600080fd5b5061030460048036038101906102ff9190612ef7565b610f8f565b6040516103149493929190612ffb565b60405180910390f35b34801561032957600080fd5b50610344600480360381019061033f9190612ef7565b6111e1565b6040516103519190612f65565b60405180910390f35b34801561036657600080fd5b50610381600480360381019061037c91906132b3565b6111f3565b60405161038e919061346c565b60405180910390f35b3480156103a357600080fd5b506103be60048036038101906103b991906132b3565b61151a565b6040516103cb9190613298565b60405180910390f35b3480156103e057600080fd5b506103e96115d4565b6040516103f792919061353d565b60405180910390f35b34801561040c57600080fd5b506104156118e6565b6040516104229190612e9f565b60405180910390f35b34801561043757600080fd5b50610452600480360381019061044d91906135a0565b611978565b005b34801561046057600080fd5b5061047b60048036038101906104769190613681565b61198e565b005b34801561048957600080fd5b506104a4600480360381019061049f9190612ef7565b6119ab565b6040516104b19190612e9f565b60405180910390f35b3480156104c657600080fd5b506104e160048036038101906104dc9190613704565b611abe565b6040516104ee9190612df4565b60405180910390f35b34801561050357600080fd5b5061051e60048036038101906105199190612ef7565b611b52565b60405161052b9190612f65565b60405180910390f35b6000634906490660e01b7bffffffffffffffffffffffffffffffffffffffffffffffffffffffff1916827bffffffffffffffffffffffffffffffffffffffffffffffffffffffff1916148061058e575061058d82611b85565b5b9050919050565b6060600080546105a490613773565b80601f01602080910402602001604051908101604052809291908181526020018280546105d090613773565b801561061d5780601f106105f25761010080835404028352916020019161061d565b820191906000526020600020905b81548152906001019060200180831161060057829003601f168201915b5050505050905090565b600061063282611c67565b5061063c82611cef565b9050919050565b6106558282610650611d2c565b611d34565b5050565b600860205280600052604060002060009150905080600001805461067c90613773565b80601f01602080910402602001604051908101604052809291908181526020018280546106a890613773565b80156106f55780601f106106ca576101008083540402835291602001916106f5565b820191906000526020600020905b8154815290600101906020018083116106d857829003601f168201915b50505050509080600101805461070a90613773565b80601f016020809104026020016040519081016040528092919081815260200182805461073690613773565b80156107835780601f1061075857610100808354040283529160200191610783565b820191906000526020600020905b81548152906001019060200180831161076657829003601f168201915b50505050509080600201805461079890613773565b80601f01602080910402602001604051908101604052809291908181526020018280546107c490613773565b80156108115780601f106107e657610100808354040283529160200191610811565b820191906000526020600020905b8154815290600101906020018083116107f457829003601f168201915b5050505050908060030154905084565b600073ffffffffffffffffffffffffffffffffffffffff168273ffffffffffffffffffffffffffffffffffffffff16036108935760006040517f64a0ae9200000000000000000000000000000000000000000000000000000000815260040161088a9190612f65565b60405180910390fd5b60006108a783836108a2611d2c565b611d46565b90508373ffffffffffffffffffffffffffffffffffffffff168173ffffffffffffffffffffffffffffffffffffffff161461091d578382826040517f64283d7b000000000000000000000000000000000000000000000000000000008152600401610914939291906137a4565b60405180910390fd5b50505050565b600080855111610968576040517f08c379a000000000000000000000000000000000000000000000000000000000815260040161095f90613827565b60405180910390fd5b60008451116109ac576040517f08c379a00000000000000000000000000000000000000000000000000000000081526004016109a390613893565b60405180910390fd5b60008351116109f0576040517f08c379a00000000000000000000000000000000000000000000000000000000081526004016109e7906138ff565b60405180910390fd5b60008211610a33576040517f08c379a0000000000000000000000000000000000000000000000000000000008152600401610a2a9061396b565b60405180910390fd5b60076000815480929190610a46906139ba565b919050555060006007549050610a5c3382611f60565b610a668185611f7e565b604051806080016040528087815260200186815260200185815260200184815250600860008381526020019081526020016000206000820151816000019081610aaf9190613bae565b506020820151816001019081610ac59190613bae565b506040820151816002019081610adb9190613bae565b5060608201518160030155905050336009600083815260200190815260200160002060006101000a81548173ffffffffffffffffffffffffffffffffffffffff021916908373ffffffffffffffffffffffffffffffffffffffff160217905550600a60003373ffffffffffffffffffffffffffffffffffffffff1673ffffffffffffffffffffffffffffffffffffffff1681526020019081526020016000208190806001815401808255809150506001900390600052602060002001600090919091909150553373ffffffffffffffffffffffffffffffffffffffff16817fcfe1510748f3f38b7a2833e99b64a4f8c1fe75ae5ac5e7270308242d360c9c3d88888888604051610bee9493929190612ffb565b60405180910390a380915050949350505050565b610c1d8383836040518060200160405280600081525061198e565b505050565b806007541015610c67576040517f08c379a0000000000000000000000000000000000000000000000000000000008152600401610c5e90613ccc565b60405180910390fd5b600060086000838152602001908152602001600020604051806080016040529081600082018054610c9790613773565b80601f0160208091040260200160405190810160405280929190818152602001828054610cc390613773565b8015610d105780601f10610ce557610100808354040283529160200191610d10565b820191906000526020600020905b815481529060010190602001808311610cf357829003601f168201915b50505050508152602001600182018054610d2990613773565b80601f0160208091040260200160405190810160405280929190818152602001828054610d5590613773565b8015610da25780601f10610d7757610100808354040283529160200191610da2565b820191906000526020600020905b815481529060010190602001808311610d8557829003601f168201915b50505050508152602001600282018054610dbb90613773565b80601f0160208091040260200160405190810160405280929190818152602001828054610de790613773565b8015610e345780601f10610e0957610100808354040283529160200191610e34565b820191906000526020600020905b815481529060010190602001808311610e1757829003601f168201915b5050505050815260200160038201548152505090508060600151341015610e90576040517f08c379a0000000000000000000000000000000000000000000000000000000008152600401610e8790613d38565b60405180910390fd5b60006009600084815260200190815260200160002060009054906101000a900473ffffffffffffffffffffffffffffffffffffffff169050610ed3813385611fda565b8073ffffffffffffffffffffffffffffffffffffffff166108fc349081150290604051600060405180830381858888f19350505050158015610f19573d6000803e3d6000fd5b50610f248184612147565b600a60003373ffffffffffffffffffffffffffffffffffffffff1673ffffffffffffffffffffffffffffffffffffffff168152602001908152602001600020839080600181540180825580915050600190039060005260206000200160009091909190915055505050565b60608060606000846007541015610fdb576040517f08c379a0000000000000000000000000000000000000000000000000000000008152600401610fd290613ccc565b60405180910390fd5b60006008600087815260200190815260200160002060405180608001604052908160008201805461100b90613773565b80601f016020809104026020016040519081016040528092919081815260200182805461103790613773565b80156110845780601f1061105957610100808354040283529160200191611084565b820191906000526020600020905b81548152906001019060200180831161106757829003601f168201915b5050505050815260200160018201805461109d90613773565b80601f01602080910402602001604051908101604052809291908181526020018280546110c990613773565b80156111165780601f106110eb57610100808354040283529160200191611116565b820191906000526020600020905b8154815290600101906020018083116110f957829003601f168201915b5050505050815260200160028201805461112f90613773565b80601f016020809104026020016040519081016040528092919081815260200182805461115b90613773565b80156111a85780601f1061117d576101008083540402835291602001916111a8565b820191906000526020600020905b81548152906001019060200180831161118b57829003601f168201915b50505050508152602001600382015481525050905080600001518160200151826040015183606001519450945094509450509193509193565b60006111ec82611c67565b9050919050565b60606000600a60008473ffffffffffffffffffffffffffffffffffffffff1673ffffffffffffffffffffffffffffffffffffffff16815260200190815260200160002080548060200260200160405190810160405280929190818152602001828054801561128057602002820191906000526020600020905b81548152602001906001019080831161126c575b505050505090506000815167ffffffffffffffff8111156112a4576112a36130b2565b5b6040519080825280602002602001820160405280156112dd57816020015b6112ca612d18565b8152602001906001900390816112c25790505b50905060005b825181101561150f576008600084838151811061130357611302613d58565b5b6020026020010151815260200190815260200160002060405180608001604052908160008201805461133490613773565b80601f016020809104026020016040519081016040528092919081815260200182805461136090613773565b80156113ad5780601f10611382576101008083540402835291602001916113ad565b820191906000526020600020905b81548152906001019060200180831161139057829003601f168201915b505050505081526020016001820180546113c690613773565b80601f01602080910402602001604051908101604052809291908181526020018280546113f290613773565b801561143f5780601f106114145761010080835404028352916020019161143f565b820191906000526020600020905b81548152906001019060200180831161142257829003601f168201915b5050505050815260200160028201805461145890613773565b80601f016020809104026020016040519081016040528092919081815260200182805461148490613773565b80156114d15780601f106114a6576101008083540402835291602001916114d1565b820191906000526020600020905b8154815290600101906020018083116114b457829003601f168201915b505050505081526020016003820154815250508282815181106114f7576114f6613d58565b5b602002602001018190525080806001019150506112e3565b508092505050919050565b60008073ffffffffffffffffffffffffffffffffffffffff168273ffffffffffffffffffffffffffffffffffffffff160361158d5760006040517f89c62b640000000000000000000000000000000000000000000000000000000081526004016115849190612f65565b60405180910390fd5b600360008373ffffffffffffffffffffffffffffffffffffffff1673ffffffffffffffffffffffffffffffffffffffff168152602001908152602001600020549050919050565b6060806000600754905060008167ffffffffffffffff8111156115fa576115f96130b2565b5b6040519080825280602002602001820160405280156116285781602001602082028036833780820191505090505b50905060008267ffffffffffffffff811115611647576116466130b2565b5b60405190808252806020026020018201604052801561168057816020015b61166d612d18565b8152602001906001900390816116655790505b5090506000600190505b8381116118d85780836001836116a09190613d87565b815181106116b1576116b0613d58565b5b602002602001018181525050600860008281526020019081526020016000206040518060800160405290816000820180546116eb90613773565b80601f016020809104026020016040519081016040528092919081815260200182805461171790613773565b80156117645780601f1061173957610100808354040283529160200191611764565b820191906000526020600020905b81548152906001019060200180831161174757829003601f168201915b5050505050815260200160018201805461177d90613773565b80601f01602080910402602001604051908101604052809291908181526020018280546117a990613773565b80156117f65780601f106117cb576101008083540402835291602001916117f6565b820191906000526020600020905b8154815290600101906020018083116117d957829003601f168201915b5050505050815260200160028201805461180f90613773565b80601f016020809104026020016040519081016040528092919081815260200182805461183b90613773565b80156118885780601f1061185d57610100808354040283529160200191611888565b820191906000526020600020905b81548152906001019060200180831161186b57829003601f168201915b50505050508152602001600382015481525050826001836118a99190613d87565b815181106118ba576118b9613d58565b5b602002602001018190525080806118d0906139ba565b91505061168a565b508181945094505050509091565b6060600180546118f590613773565b80601f016020809104026020016040519081016040528092919081815260200182805461192190613773565b801561196e5780601f106119435761010080835404028352916020019161196e565b820191906000526020600020905b81548152906001019060200180831161195157829003601f168201915b5050505050905090565b61198a611983611d2c565b838361224b565b5050565b611999848484610821565b6119a5848484846123ba565b50505050565b60606119b682611c67565b5060006006600084815260200190815260200160002080546119d790613773565b80601f0160208091040260200160405190810160405280929190818152602001828054611a0390613773565b8015611a505780601f10611a2557610100808354040283529160200191611a50565b820191906000526020600020905b815481529060010190602001808311611a3357829003601f168201915b505050505090506000611a61612571565b90506000815103611a76578192505050611ab9565b600082511115611aab578082604051602001611a93929190613df7565b60405160208183030381529060405292505050611ab9565b611ab484612588565b925050505b919050565b6000600560008473ffffffffffffffffffffffffffffffffffffffff1673ffffffffffffffffffffffffffffffffffffffff16815260200190815260200160002060008373ffffffffffffffffffffffffffffffffffffffff1673ffffffffffffffffffffffffffffffffffffffff16815260200190815260200160002060009054906101000a900460ff16905092915050565b60096020528060005260406000206000915054906101000a900473ffffffffffffffffffffffffffffffffffffffff1681565b60007f80ac58cd000000000000000000000000000000000000000000000000000000007bffffffffffffffffffffffffffffffffffffffffffffffffffffffff1916827bffffffffffffffffffffffffffffffffffffffffffffffffffffffff19161480611c5057507f5b5e139f000000000000000000000000000000000000000000000000000000007bffffffffffffffffffffffffffffffffffffffffffffffffffffffff1916827bffffffffffffffffffffffffffffffffffffffffffffffffffffffff1916145b80611c605750611c5f826125f1565b5b9050919050565b600080611c738361265b565b9050600073ffffffffffffffffffffffffffffffffffffffff168173ffffffffffffffffffffffffffffffffffffffff1603611ce657826040517f7e273289000000000000000000000000000000000000000000000000000000008152600401611cdd9190613298565b60405180910390fd5b80915050919050565b60006004600083815260200190815260200160002060009054906101000a900473ffffffffffffffffffffffffffffffffffffffff169050919050565b600033905090565b611d418383836001612698565b505050565b600080611d528461265b565b9050600073ffffffffffffffffffffffffffffffffffffffff168373ffffffffffffffffffffffffffffffffffffffff1614611d9457611d9381848661285d565b5b600073ffffffffffffffffffffffffffffffffffffffff168173ffffffffffffffffffffffffffffffffffffffff1614611e2557611dd6600085600080612698565b6001600360008373ffffffffffffffffffffffffffffffffffffffff1673ffffffffffffffffffffffffffffffffffffffff168152602001908152602001600020600082825403925050819055505b600073ffffffffffffffffffffffffffffffffffffffff168573ffffffffffffffffffffffffffffffffffffffff1614611ea8576001600360008773ffffffffffffffffffffffffffffffffffffffff1673ffffffffffffffffffffffffffffffffffffffff168152602001908152602001600020600082825401925050819055505b846002600086815260200190815260200160002060006101000a81548173ffffffffffffffffffffffffffffffffffffffff021916908373ffffffffffffffffffffffffffffffffffffffff160217905550838573ffffffffffffffffffffffffffffffffffffffff168273ffffffffffffffffffffffffffffffffffffffff167fddf252ad1be2c89b69c2b068fc378daa952ba7f163c4a11628f55a4df523b3ef60405160405180910390a4809150509392505050565b611f7a828260405180602001604052806000815250612921565b5050565b80600660008481526020019081526020016000209081611f9e9190613bae565b507ff8e1a15aba9398e019f0b49df1a4fde98ee17ae345cb5f6b5e2c27f5033e8ce782604051611fce9190613298565b60405180910390a15050565b600073ffffffffffffffffffffffffffffffffffffffff168273ffffffffffffffffffffffffffffffffffffffff160361204c5760006040517f64a0ae920000000000000000000000000000000000000000000000000000000081526004016120439190612f65565b60405180910390fd5b600061205a83836000611d46565b9050600073ffffffffffffffffffffffffffffffffffffffff168173ffffffffffffffffffffffffffffffffffffffff16036120cd57816040517f7e2732890000000000000000000000000000000000000000000000000000000081526004016120c49190613298565b60405180910390fd5b8373ffffffffffffffffffffffffffffffffffffffff168173ffffffffffffffffffffffffffffffffffffffff1614612141578382826040517f64283d7b000000000000000000000000000000000000000000000000000000008152600401612138939291906137a4565b60405180910390fd5b50505050565b6000600a60008473ffffffffffffffffffffffffffffffffffffffff1673ffffffffffffffffffffffffffffffffffffffff168152602001908152602001600020905060005b818054905081101561224557828282815481106121ad576121ac613d58565b5b9060005260206000200154036122385781600183805490506121cf9190613d87565b815481106121e0576121df613d58565b5b90600052602060002001548282815481106121fe576121fd613d58565b5b90600052602060002001819055508180548061221d5761221c613e1b565b5b60019003818190600052602060002001600090559055612245565b808060010191505061218d565b50505050565b600073ffffffffffffffffffffffffffffffffffffffff168273ffffffffffffffffffffffffffffffffffffffff16036122bc57816040517f5b08ba180000000000000000000000000000000000000000000000000000000081526004016122b39190612f65565b60405180910390fd5b80600560008573ffffffffffffffffffffffffffffffffffffffff1673ffffffffffffffffffffffffffffffffffffffff16815260200190815260200160002060008473ffffffffffffffffffffffffffffffffffffffff1673ffffffffffffffffffffffffffffffffffffffff16815260200190815260200160002060006101000a81548160ff0219169083151502179055508173ffffffffffffffffffffffffffffffffffffffff168373ffffffffffffffffffffffffffffffffffffffff167f17307eab39ab6107e8899845ad3d59bd9653f200f220920489ca2b5937696c31836040516123ad9190612df4565b60405180910390a3505050565b60008373ffffffffffffffffffffffffffffffffffffffff163b111561256b578273ffffffffffffffffffffffffffffffffffffffff1663150b7a026123fe611d2c565b8685856040518563ffffffff1660e01b81526004016124209493929190613e9f565b6020604051808303816000875af192505050801561245c57506040513d601f19601f820116820180604052508101906124599190613f00565b60015b6124e0573d806000811461248c576040519150601f19603f3d011682016040523d82523d6000602084013e612491565b606091505b5060008151036124d857836040517f64a0ae920000000000000000000000000000000000000000000000000000000081526004016124cf9190612f65565b60405180910390fd5b805181602001fd5b63150b7a0260e01b7bffffffffffffffffffffffffffffffffffffffffffffffffffffffff1916817bffffffffffffffffffffffffffffffffffffffffffffffffffffffff19161461256957836040517f64a0ae920000000000000000000000000000000000000000000000000000000081526004016125609190612f65565b60405180910390fd5b505b50505050565b606060405180602001604052806000815250905090565b606061259382611c67565b50600061259e612571565b905060008151116125be57604051806020016040528060008152506125e9565b806125c88461293d565b6040516020016125d9929190613df7565b6040516020818303038152906040525b915050919050565b60007f01ffc9a7000000000000000000000000000000000000000000000000000000007bffffffffffffffffffffffffffffffffffffffffffffffffffffffff1916827bffffffffffffffffffffffffffffffffffffffffffffffffffffffff1916149050919050565b60006002600083815260200190815260200160002060009054906101000a900473ffffffffffffffffffffffffffffffffffffffff169050919050565b80806126d15750600073ffffffffffffffffffffffffffffffffffffffff168273ffffffffffffffffffffffffffffffffffffffff1614155b156128055760006126e184611c67565b9050600073ffffffffffffffffffffffffffffffffffffffff168373ffffffffffffffffffffffffffffffffffffffff161415801561274c57508273ffffffffffffffffffffffffffffffffffffffff168173ffffffffffffffffffffffffffffffffffffffff1614155b801561275f575061275d8184611abe565b155b156127a157826040517fa9fbf51f0000000000000000000000000000000000000000000000000000000081526004016127989190612f65565b60405180910390fd5b811561280357838573ffffffffffffffffffffffffffffffffffffffff168273ffffffffffffffffffffffffffffffffffffffff167f8c5be1e5ebec7d5bd14f71427d1e84f3dd0314c0f7b2291e5b200ac8c7c3b92560405160405180910390a45b505b836004600085815260200190815260200160002060006101000a81548173ffffffffffffffffffffffffffffffffffffffff021916908373ffffffffffffffffffffffffffffffffffffffff16021790555050505050565b612868838383612a0b565b61291c57600073ffffffffffffffffffffffffffffffffffffffff168373ffffffffffffffffffffffffffffffffffffffff16036128dd57806040517f7e2732890000000000000000000000000000000000000000000000000000000081526004016128d49190613298565b60405180910390fd5b81816040517f177e802f000000000000000000000000000000000000000000000000000000008152600401612913929190613f2d565b60405180910390fd5b505050565b61292b8383612acc565b61293860008484846123ba565b505050565b60606000600161294c84612bc5565b01905060008167ffffffffffffffff81111561296b5761296a6130b2565b5b6040519080825280601f01601f19166020018201604052801561299d5781602001600182028036833780820191505090505b509050600082602001820190505b600115612a00578080600190039150507f3031323334353637383961626364656600000000000000000000000000000000600a86061a8153600a85816129f4576129f3613f56565b5b049450600085036129ab575b819350505050919050565b60008073ffffffffffffffffffffffffffffffffffffffff168373ffffffffffffffffffffffffffffffffffffffff1614158015612ac357508273ffffffffffffffffffffffffffffffffffffffff168473ffffffffffffffffffffffffffffffffffffffff161480612a845750612a838484611abe565b5b80612ac257508273ffffffffffffffffffffffffffffffffffffffff16612aaa83611cef565b73ffffffffffffffffffffffffffffffffffffffff16145b5b90509392505050565b600073ffffffffffffffffffffffffffffffffffffffff168273ffffffffffffffffffffffffffffffffffffffff1603612b3e5760006040517f64a0ae92000000000000000000000000000000000000000000000000000000008152600401612b359190612f65565b60405180910390fd5b6000612b4c83836000611d46565b9050600073ffffffffffffffffffffffffffffffffffffffff168173ffffffffffffffffffffffffffffffffffffffff1614612bc05760006040517f73c6ac6e000000000000000000000000000000000000000000000000000000008152600401612bb79190612f65565b60405180910390fd5b505050565b600080600090507a184f03e93ff9f4daa797ed6e38ed64bf6a1f0100000000000000008310612c23577a184f03e93ff9f4daa797ed6e38ed64bf6a1f0100000000000000008381612c1957612c18613f56565b5b0492506040810190505b6d04ee2d6d415b85acef81000000008310612c60576d04ee2d6d415b85acef81000000008381612c5657612c55613f56565b5b0492506020810190505b662386f26fc100008310612c8f57662386f26fc100008381612c8557612c84613f56565b5b0492506010810190505b6305f5e1008310612cb8576305f5e1008381612cae57612cad613f56565b5b0492506008810190505b6127108310612cdd576127108381612cd357612cd2613f56565b5b0492506004810190505b60648310612d005760648381612cf657612cf5613f56565b5b0492506002810190505b600a8310612d0f576001810190505b80915050919050565b6040518060800160405280606081526020016060815260200160608152602001600081525090565b6000604051905090565b600080fd5b600080fd5b60007fffffffff0000000000000000000000000000000000000000000000000000000082169050919050565b612d8981612d54565b8114612d9457600080fd5b50565b600081359050612da681612d80565b92915050565b600060208284031215612dc257612dc1612d4a565b5b6000612dd084828501612d97565b91505092915050565b60008115159050919050565b612dee81612dd9565b82525050565b6000602082019050612e096000830184612de5565b92915050565b600081519050919050565b600082825260208201905092915050565b60005b83811015612e49578082015181840152602081019050612e2e565b60008484015250505050565b6000601f19601f8301169050919050565b6000612e7182612e0f565b612e7b8185612e1a565b9350612e8b818560208601612e2b565b612e9481612e55565b840191505092915050565b60006020820190508181036000830152612eb98184612e66565b905092915050565b6000819050919050565b612ed481612ec1565b8114612edf57600080fd5b50565b600081359050612ef181612ecb565b92915050565b600060208284031215612f0d57612f0c612d4a565b5b6000612f1b84828501612ee2565b91505092915050565b600073ffffffffffffffffffffffffffffffffffffffff82169050919050565b6000612f4f82612f24565b9050919050565b612f5f81612f44565b82525050565b6000602082019050612f7a6000830184612f56565b92915050565b612f8981612f44565b8114612f9457600080fd5b50565b600081359050612fa681612f80565b92915050565b60008060408385031215612fc357612fc2612d4a565b5b6000612fd185828601612f97565b9250506020612fe285828601612ee2565b9150509250929050565b612ff581612ec1565b82525050565b600060808201905081810360008301526130158187612e66565b905081810360208301526130298186612e66565b9050818103604083015261303d8185612e66565b905061304c6060830184612fec565b95945050505050565b60008060006060848603121561306e5761306d612d4a565b5b600061307c86828701612f97565b935050602061308d86828701612f97565b925050604061309e86828701612ee2565b9150509250925092565b600080fd5b600080fd5b7f4e487b7100000000000000000000000000000000000000000000000000000000600052604160045260246000fd5b6130ea82612e55565b810181811067ffffffffffffffff82111715613109576131086130b2565b5b80604052505050565b600061311c612d40565b905061312882826130e1565b919050565b600067ffffffffffffffff821115613148576131476130b2565b5b61315182612e55565b9050602081019050919050565b82818337600083830152505050565b600061318061317b8461312d565b613112565b90508281526020810184848401111561319c5761319b6130ad565b5b6131a784828561315e565b509392505050565b600082601f8301126131c4576131c36130a8565b5b81356131d484826020860161316d565b91505092915050565b600080600080608085870312156131f7576131f6612d4a565b5b600085013567ffffffffffffffff81111561321557613214612d4f565b5b613221878288016131af565b945050602085013567ffffffffffffffff81111561324257613241612d4f565b5b61324e878288016131af565b935050604085013567ffffffffffffffff81111561326f5761326e612d4f565b5b61327b878288016131af565b925050606061328c87828801612ee2565b91505092959194509250565b60006020820190506132ad6000830184612fec565b92915050565b6000602082840312156132c9576132c8612d4a565b5b60006132d784828501612f97565b91505092915050565b600081519050919050565b600082825260208201905092915050565b6000819050602082019050919050565b600082825260208201905092915050565b600061332882612e0f565b613332818561330c565b9350613342818560208601612e2b565b61334b81612e55565b840191505092915050565b61335f81612ec1565b82525050565b60006080830160008301518482036000860152613382828261331d565b9150506020830151848203602086015261339c828261331d565b915050604083015184820360408601526133b6828261331d565b91505060608301516133cb6060860182613356565b508091505092915050565b60006133e28383613365565b905092915050565b6000602082019050919050565b6000613402826132e0565b61340c81856132eb565b93508360208202850161341e856132fc565b8060005b8581101561345a578484038952815161343b85826133d6565b9450613446836133ea565b925060208a01995050600181019050613422565b50829750879550505050505092915050565b6000602082019050818103600083015261348681846133f7565b905092915050565b600081519050919050565b600082825260208201905092915050565b6000819050602082019050919050565b60006134c68383613356565b60208301905092915050565b6000602082019050919050565b60006134ea8261348e565b6134f48185613499565b93506134ff836134aa565b8060005b8381101561353057815161351788826134ba565b9750613522836134d2565b925050600181019050613503565b5085935050505092915050565b6000604082019050818103600083015261355781856134df565b9050818103602083015261356b81846133f7565b90509392505050565b61357d81612dd9565b811461358857600080fd5b50565b60008135905061359a81613574565b92915050565b600080604083850312156135b7576135b6612d4a565b5b60006135c585828601612f97565b92505060206135d68582860161358b565b9150509250929050565b600067ffffffffffffffff8211156135fb576135fa6130b2565b5b61360482612e55565b9050602081019050919050565b600061362461361f846135e0565b613112565b9050828152602081018484840111156136405761363f6130ad565b5b61364b84828561315e565b509392505050565b600082601f830112613668576136676130a8565b5b8135613678848260208601613611565b91505092915050565b6000806000806080858703121561369b5761369a612d4a565b5b60006136a987828801612f97565b94505060206136ba87828801612f97565b93505060406136cb87828801612ee2565b925050606085013567ffffffffffffffff8111156136ec576136eb612d4f565b5b6136f887828801613653565b91505092959194509250565b6000806040838503121561371b5761371a612d4a565b5b600061372985828601612f97565b925050602061373a85828601612f97565b9150509250929050565b7f4e487b7100000000000000000000000000000000000000000000000000000000600052602260045260246000fd5b6000600282049050600182168061378b57607f821691505b60208210810361379e5761379d613744565b5b50919050565b60006060820190506137b96000830186612f56565b6137c66020830185612fec565b6137d36040830184612f56565b949350505050565b7f50726f6a656374206e616d652069732072657175697265640000000000000000600082015250565b6000613811601883612e1a565b915061381c826137db565b602082019050919050565b6000602082019050818103600083015261384081613804565b9050919050565b7f50726f6a656374206465736372697074696f6e20697320726571756972656400600082015250565b600061387d601f83612e1a565b915061388882613847565b602082019050919050565b600060208201905081810360008301526138ac81613870565b9050919050565b7f4950465320686173682069732072657175697265640000000000000000000000600082015250565b60006138e9601583612e1a565b91506138f4826138b3565b602082019050919050565b60006020820190508181036000830152613918816138dc565b9050919050565b7f5072696365206d7573742062652067726561746572207468616e203020776569600082015250565b6000613955602083612e1a565b91506139608261391f565b602082019050919050565b6000602082019050818103600083015261398481613948565b9050919050565b7f4e487b7100000000000000000000000000000000000000000000000000000000600052601160045260246000fd5b60006139c582612ec1565b91507fffffffffffffffffffffffffffffffffffffffffffffffffffffffffffffffff82036139f7576139f661398b565b5b600182019050919050565b60008190508160005260206000209050919050565b60006020601f8301049050919050565b600082821b905092915050565b600060088302613a647fffffffffffffffffffffffffffffffffffffffffffffffffffffffffffffffff82613a27565b613a6e8683613a27565b95508019841693508086168417925050509392505050565b6000819050919050565b6000613aab613aa6613aa184612ec1565b613a86565b612ec1565b9050919050565b6000819050919050565b613ac583613a90565b613ad9613ad182613ab2565b848454613a34565b825550505050565b600090565b613aee613ae1565b613af9818484613abc565b505050565b5b81811015613b1d57613b12600082613ae6565b600181019050613aff565b5050565b601f821115613b6257613b3381613a02565b613b3c84613a17565b81016020851015613b4b578190505b613b5f613b5785613a17565b830182613afe565b50505b505050565b600082821c905092915050565b6000613b8560001984600802613b67565b1980831691505092915050565b6000613b9e8383613b74565b9150826002028217905092915050565b613bb782612e0f565b67ffffffffffffffff811115613bd057613bcf6130b2565b5b613bda8254613773565b613be5828285613b21565b600060209050601f831160018114613c185760008415613c06578287015190505b613c108582613b92565b865550613c78565b601f198416613c2686613a02565b60005b82811015613c4e57848901518255600182019150602085019450602081019050613c29565b86831015613c6b5784890151613c67601f891682613b74565b8355505b6001600288020188555050505b505050505050565b7f4e465420646f6573206e6f742065786973740000000000000000000000000000600082015250565b6000613cb6601283612e1a565b9150613cc182613c80565b602082019050919050565b60006020820190508181036000830152613ce581613ca9565b9050919050565b7f496e73756666696369656e742045746865722073656e74000000000000000000600082015250565b6000613d22601783612e1a565b9150613d2d82613cec565b602082019050919050565b60006020820190508181036000830152613d5181613d15565b9050919050565b7f4e487b7100000000000000000000000000000000000000000000000000000000600052603260045260246000fd5b6000613d9282612ec1565b9150613d9d83612ec1565b9250828203905081811115613db557613db461398b565b5b92915050565b600081905092915050565b6000613dd182612e0f565b613ddb8185613dbb565b9350613deb818560208601612e2b565b80840191505092915050565b6000613e038285613dc6565b9150613e0f8284613dc6565b91508190509392505050565b7f4e487b7100000000000000000000000000000000000000000000000000000000600052603160045260246000fd5b600081519050919050565b600082825260208201905092915050565b6000613e7182613e4a565b613e7b8185613e55565b9350613e8b818560208601612e2b565b613e9481612e55565b840191505092915050565b6000608082019050613eb46000830187612f56565b613ec16020830186612f56565b613ece6040830185612fec565b8181036060830152613ee08184613e66565b905095945050505050565b600081519050613efa81612d80565b92915050565b600060208284031215613f1657613f15612d4a565b5b6000613f2484828501613eeb565b91505092915050565b6000604082019050613f426000830185612f56565b613f4f6020830184612fec565b9392505050565b7f4e487b7100000000000000000000000000000000000000000000000000000000600052601260045260246000fdfea26469706673582212209fefd2c409c5eccc5bd4e893f17f221d0d8373c108cc94e0af0bc7b16c1717c964736f6c63430008180033",
  "linkReferences": {},
  "deployedLinkReferences": {}
}