{
  "_format": "hh-sol-artifact-1",
  "contractName": "CarbonMarketplace",
  "sourceName": "contracts/CarbonMarketplace.sol",
  "abi": [
    {
      "inputs": [
        {
          "internalType": "address",
          "name": "spender",
          "type": "address"
        },
        {
          "internalType": "uint256",
          "name": "allowance",
          "type": "uint256"
        },
        {
          "internalType": "uint256",
          "name": "needed",
          "type": "uint256"
        }
      ],
      "name": "ERC20InsufficientAllowance",
      "type": "error"
    },
    {
      "inputs": [
        {
          "internalType": "address",
          "name": "sender",
          "type": "address"
        },
        {
          "internalType": "uint256",
          "name": "balance",
          "type": "uint256"
        },
        {
          "internalType": "uint256",
          "name": "needed",
          "type": "uint256"
        }
      ],
      "name": "ERC20InsufficientBalance",
      "type": "error"
    },
    {
      "inputs": [
        {
          "internalType": "address",
          "name": "approver",
          "type": "address"
        }
      ],
      "name": "ERC20InvalidApprover",
      "type": "error"
    },
    {
      "inputs": [
        {
          "internalType": "address",
          "name": "receiver",
          "type": "address"
        }
      ],
      "name": "ERC20InvalidReceiver",
      "type": "error"
    },
    {
      "inputs": [
        {
          "internalType": "address",
          "name": "sender",
          "type": "address"
        }
      ],
      "name": "ERC20InvalidSender",
      "type": "error"
    },
    {
      "inputs": [
        {
          "internalType": "address",
          "name": "spender",
          "type": "address"
        }
      ],
      "name": "ERC20InvalidSpender",
      "type": "error"
    },
    {
      "inputs": [
        {
          "internalType": "address",
          "name": "owner",
          "type": "address"
        }
      ],
      "name": "OwnableInvalidOwner",
      "type": "error"
    },
    {
      "inputs": [
        {
          "internalType": "address",
          "name": "account",
          "type": "address"
        }
      ],
      "name": "OwnableUnauthorizedAccount",
      "type": "error"
    },
    {
      "anonymous": false,
      "inputs": [
        {
          "indexed": true,
          "internalType": "address",
          "name": "owner",
          "type": "address"
        },
        {
          "indexed": true,
          "internalType": "address",
          "name": "spender",
          "type": "address"
        },
        {
          "indexed": false,
          "internalType": "uint256",
          "name": "value",
          "type": "uint256"
        }
      ],
      "name": "Approval",
      "type": "event"
    },
    {
      "anonymous": false,
      "inputs": [
        {
          "indexed": true,
          "internalType": "address",
          "name": "to",
          "type": "address"
        },
        {
          "indexed": false,
          "internalType": "string",
          "name": "message",
          "type": "string"
        }
      ],
      "name": "CertificateIssued",
      "type": "event"
    },
    {
      "anonymous": false,
      "inputs": [
        {
          "indexed": true,
          "internalType": "address",
          "name": "seller",
          "type": "address"
        },
        {
          "indexed": false,
          "internalType": "uint256",
          "name": "newAmount",
          "type": "uint256"
        },
        {
          "indexed": false,
          "internalType": "uint256",
          "name": "newPrice",
          "type": "uint256"
        }
      ],
      "name": "ListingUpdated",
      "type": "event"
    },
    {
      "anonymous": false,
      "inputs": [
        {
          "indexed": true,
          "internalType": "address",
          "name": "previousOwner",
          "type": "address"
        },
        {
          "indexed": true,
          "internalType": "address",
          "name": "newOwner",
          "type": "address"
        }
      ],
      "name": "OwnershipTransferred",
      "type": "event"
    },
    {
      "anonymous": false,
      "inputs": [
        {
          "indexed": true,
          "internalType": "address",
          "name": "from",
          "type": "address"
        },
        {
          "indexed": false,
          "internalType": "uint256",
          "name": "amount",
          "type": "uint256"
        }
      ],
      "name": "TokensBurned",
      "type": "event"
    },
    {
      "anonymous": false,
      "inputs": [
        {
          "indexed": true,
          "internalType": "address",
          "name": "seller",
          "type": "address"
        },
        {
          "indexed": false,
          "internalType": "uint256",
          "name": "amount",
          "type": "uint256"
        },
        {
          "indexed": false,
          "internalType": "uint256",
          "name": "price",
          "type": "uint256"
        }
      ],
      "name": "TokensListed",
      "type": "event"
    },
    {
      "anonymous": false,
      "inputs": [
        {
          "indexed": true,
          "internalType": "address",
          "name": "to",
          "type": "address"
        },
        {
          "indexed": false,
          "internalType": "uint256",
          "name": "amount",
          "type": "uint256"
        }
      ],
      "name": "TokensMinted",
      "type": "event"
    },
    {
      "anonymous": false,
      "inputs": [
        {
          "indexed": true,
          "internalType": "address",
          "name": "buyer",
          "type": "address"
        },
        {
          "indexed": true,
          "internalType": "address",
          "name": "seller",
          "type": "address"
        },
        {
          "indexed": false,
          "internalType": "uint256",
          "name": "amount",
          "type": "uint256"
        },
        {
          "indexed": false,
          "internalType": "uint256",
          "name": "totalPrice",
          "type": "uint256"
        }
      ],
      "name": "TokensPurchased",
      "type": "event"
    },
    {
      "anonymous": false,
      "inputs": [
        {
          "indexed": true,
          "internalType": "address",
          "name": "from",
          "type": "address"
        },
        {
          "indexed": true,
          "internalType": "address",
          "name": "to",
          "type": "address"
        },
        {
          "indexed": false,
          "internalType": "uint256",
          "name": "value",
          "type": "uint256"
        }
      ],
      "name": "Transfer",
      "type": "event"
    },
    {
      "inputs": [
        {
          "internalType": "address",
          "name": "owner",
          "type": "address"
        },
        {
          "internalType": "address",
          "name": "spender",
          "type": "address"
        }
      ],
      "name": "allowance",
      "outputs": [
        {
          "internalType": "uint256",
          "name": "",
          "type": "uint256"
        }
      ],
      "stateMutability": "view",
      "type": "function"
    },
    {
      "inputs": [
        {
          "internalType": "address",
          "name": "spender",
          "type": "address"
        },
        {
          "internalType": "uint256",
          "name": "value",
          "type": "uint256"
        }
      ],
      "name": "approve",
      "outputs": [
        {
          "internalType": "bool",
          "name": "",
          "type": "bool"
        }
      ],
      "stateMutability": "nonpayable",
      "type": "function"
    },
    {
      "inputs": [
        {
          "internalType": "address",
          "name": "account",
          "type": "address"
        }
      ],
      "name": "balanceOf",
      "outputs": [
        {
          "internalType": "uint256",
          "name": "",
          "type": "uint256"
        }
      ],
      "stateMutability": "view",
      "type": "function"
    },
    {
      "inputs": [
        {
          "internalType": "address",
          "name": "from",
          "type": "address"
        },
        {
          "internalType": "uint256",
          "name": "amount",
          "type": "uint256"
        }
      ],
      "name": "burnTokens",
      "outputs": [],
      "stateMutability": "nonpayable",
      "type": "function"
    },
    {
      "inputs": [
        {
          "internalType": "address",
          "name": "seller",
          "type": "address"
        },
        {
          "internalType": "uint256",
          "name": "amount",
          "type": "uint256"
        }
      ],
      "name": "buyTokens",
      "outputs": [],
      "stateMutability": "payable",
      "type": "function"
    },
    {
      "inputs": [],
      "name": "calculateAveragePrice",
      "outputs": [
        {
          "internalType": "uint256",
          "name": "",
          "type": "uint256"
        }
      ],
      "stateMutability": "view",
      "type": "function"
    },
    {
      "inputs": [
        {
          "internalType": "address",
          "name": "",
          "type": "address"
        },
        {
          "internalType": "uint256",
          "name": "",
          "type": "uint256"
        }
      ],
      "name": "certificates",
      "outputs": [
        {
          "internalType": "string",
          "name": "message",
          "type": "string"
        },
        {
          "internalType": "uint256",
          "name": "timestamp",
          "type": "uint256"
        },
        {
          "internalType": "address",
          "name": "issuedTo",
          "type": "address"
        }
      ],
      "stateMutability": "view",
      "type": "function"
    },
    {
      "inputs": [],
      "name": "decimals",
      "outputs": [
        {
          "internalType": "uint8",
          "name": "",
          "type": "uint8"
        }
      ],
      "stateMutability": "view",
      "type": "function"
    },
    {
      "inputs": [],
      "name": "getAllListings",
      "outputs": [
        {
          "internalType": "address[]",
          "name": "",
          "type": "address[]"
        },
        {
          "internalType": "uint256[]",
          "name": "",
          "type": "uint256[]"
        },
        {
          "internalType": "uint256[]",
          "name": "",
          "type": "uint256[]"
        }
      ],
      "stateMutability": "view",
      "type": "function"
    },
    {
      "inputs": [
        {
          "internalType": "address",
          "name": "user",
          "type": "address"
        }
      ],
      "name": "getCertificates",
      "outputs": [
        {
          "components": [
            {
              "internalType": "string",
              "name": "message",
              "type": "string"
            },
            {
              "internalType": "uint256",
              "name": "timestamp",
              "type": "uint256"
            },
            {
              "internalType": "address",
              "name": "issuedTo",
              "type": "address"
            }
          ],
          "internalType": "struct CarbonToken.Certificate[]",
          "name": "",
          "type": "tuple[]"
        }
      ],
      "stateMutability": "view",
      "type": "function"
    },
    {
      "inputs": [],
      "name": "getNumberOfSellers",
      "outputs": [
        {
          "internalType": "uint256",
          "name": "",
          "type": "uint256"
        }
      ],
      "stateMutability": "view",
      "type": "function"
    },
    {
      "inputs": [
        {
          "internalType": "uint256",
          "name": "amount",
          "type": "uint256"
        },
        {
          "internalType": "uint256",
          "name": "price",
          "type": "uint256"
        }
      ],
      "name": "listTokens",
      "outputs": [],
      "stateMutability": "nonpayable",
      "type": "function"
    },
    {
      "inputs": [
        {
          "internalType": "address",
          "name": "",
          "type": "address"
        }
      ],
      "name": "listings",
      "outputs": [
        {
          "internalType": "uint256",
          "name": "amount",
          "type": "uint256"
        },
        {
          "internalType": "uint256",
          "name": "price",
          "type": "uint256"
        },
        {
          "internalType": "bool",
          "name": "active",
          "type": "bool"
        }
      ],
      "stateMutability": "view",
      "type": "function"
    },
    {
      "inputs": [
        {
          "internalType": "address",
          "name": "to",
          "type": "address"
        },
        {
          "internalType": "uint256",
          "name": "amount",
          "type": "uint256"
        }
      ],
      "name": "mintTokens",
      "outputs": [],
      "stateMutability": "nonpayable",
      "type": "function"
    },
    {
      "inputs": [],
      "name": "name",
      "outputs": [
        {
          "internalType": "string",
          "name": "",
          "type": "string"
        }
      ],
      "stateMutability": "view",
      "type": "function"
    },
    {
      "inputs": [],
      "name": "owner",
      "outputs": [
        {
          "internalType": "address",
          "name": "",
          "type": "address"
        }
      ],
      "stateMutability": "view",
      "type": "function"
    },
    {
      "inputs": [],
      "name": "renounceOwnership",
      "outputs": [],
      "stateMutability": "nonpayable",
      "type": "function"
    },
    {
      "inputs": [
        {
          "internalType": "uint256",
          "name": "",
          "type": "uint256"
        }
      ],
      "name": "sellers",
      "outputs": [
        {
          "internalType": "address",
          "name": "",
          "type": "address"
        }
      ],
      "stateMutability": "view",
      "type": "function"
    },
    {
      "inputs": [],
      "name": "symbol",
      "outputs": [
        {
          "internalType": "string",
          "name": "",
          "type": "string"
        }
      ],
      "stateMutability": "view",
      "type": "function"
    },
    {
      "inputs": [],
      "name": "totalSupply",
      "outputs": [
        {
          "internalType": "uint256",
          "name": "",
          "type": "uint256"
        }
      ],
      "stateMutability": "view",
      "type": "function"
    },
    {
      "inputs": [
        {
          "internalType": "address",
          "name": "to",
          "type": "address"
        },
        {
          "internalType": "uint256",
          "name": "value",
          "type": "uint256"
        }
      ],
      "name": "transfer",
      "outputs": [
        {
          "internalType": "bool",
          "name": "",
          "type": "bool"
        }
      ],
      "stateMutability": "nonpayable",
      "type": "function"
    },
    {
      "inputs": [
        {
          "internalType": "address",
          "name": "from",
          "type": "address"
        },
        {
          "internalType": "address",
          "name": "to",
          "type": "address"
        },
        {
          "internalType": "uint256",
          "name": "value",
          "type": "uint256"
        }
      ],
      "name": "transferFrom",
      "outputs": [
        {
          "internalType": "bool",
          "name": "",
          "type": "bool"
        }
      ],
      "stateMutability": "nonpayable",
      "type": "function"
    },
    {
      "inputs": [
        {
          "internalType": "address",
          "name": "newOwner",
          "type": "address"
        }
      ],
      "name": "transferOwnership",
      "outputs": [],
      "stateMutability": "nonpayable",
      "type": "function"
    },
    {
      "inputs": [
        {
          "internalType": "uint256",
          "name": "newAmount",
          "type": "uint256"
        },
        {
          "internalType": "uint256",
          "name": "newPrice",
          "type": "uint256"
        }
      ],
      "name": "updateListing",
      "outputs": [],
      "stateMutability": "nonpayable",
      "type": "function"
    },
    {
      "inputs": [
        {
          "internalType": "address",
          "name": "seller",
          "type": "address"
        }
      ],
      "name": "viewListing",
      "outputs": [
        {
          "components": [
            {
              "internalType": "uint256",
              "name": "amount",
              "type": "uint256"
            },
            {
              "internalType": "uint256",
              "name": "price",
              "type": "uint256"
            },
            {
              "internalType": "bool",
              "name": "active",
              "type": "bool"
            }
          ],
          "internalType": "struct CarbonMarketplace.Listing",
          "name": "",
          "type": "tuple"
        }
      ],
      "stateMutability": "view",
      "type": "function"
    }
  ],
  "bytecode": "0x60806040523480156200001157600080fd5b50336040518060400160405280600b81526020017f436172626f6e546f6b656e0000000000000000000000000000000000000000008152506040518060400160405280600481526020017f4341524200000000000000000000000000000000000000000000000000000000815250816003908162000090919062000472565b508060049081620000a2919062000472565b505050600073ffffffffffffffffffffffffffffffffffffffff168173ffffffffffffffffffffffffffffffffffffffff16036200011a5760006040517f1e4fbdf70000000000000000000000000000000000000000000000000000000081526004016200011191906200059e565b60405180910390fd5b6200012b816200013260201b60201c565b50620005bb565b6000600560009054906101000a900473ffffffffffffffffffffffffffffffffffffffff16905081600560006101000a81548173ffffffffffffffffffffffffffffffffffffffff021916908373ffffffffffffffffffffffffffffffffffffffff1602179055508173ffffffffffffffffffffffffffffffffffffffff168173ffffffffffffffffffffffffffffffffffffffff167f8be0079c531659141344cd1fd0a4f28419497f9722a3daafe3b4186f6b6457e060405160405180910390a35050565b600081519050919050565b7f4e487b7100000000000000000000000000000000000000000000000000000000600052604160045260246000fd5b7f4e487b7100000000000000000000000000000000000000000000000000000000600052602260045260246000fd5b600060028204905060018216806200027a57607f821691505b60208210810362000290576200028f62000232565b5b50919050565b60008190508160005260206000209050919050565b60006020601f8301049050919050565b600082821b905092915050565b600060088302620002fa7fffffffffffffffffffffffffffffffffffffffffffffffffffffffffffffffff82620002bb565b620003068683620002bb565b95508019841693508086168417925050509392505050565b6000819050919050565b6000819050919050565b6000620003536200034d62000347846200031e565b62000328565b6200031e565b9050919050565b6000819050919050565b6200036f8362000332565b620003876200037e826200035a565b848454620002c8565b825550505050565b600090565b6200039e6200038f565b620003ab81848462000364565b505050565b5b81811015620003d357620003c760008262000394565b600181019050620003b1565b5050565b601f8211156200042257620003ec8162000296565b620003f784620002ab565b8101602085101562000407578190505b6200041f6200041685620002ab565b830182620003b0565b50505b505050565b600082821c905092915050565b6000620004476000198460080262000427565b1980831691505092915050565b600062000462838362000434565b9150826002028217905092915050565b6200047d82620001f8565b67ffffffffffffffff81111562000499576200049862000203565b5b620004a5825462000261565b620004b2828285620003d7565b600060209050601f831160018114620004ea5760008415620004d5578287015190505b620004e1858262000454565b86555062000551565b601f198416620004fa8662000296565b60005b828110156200052457848901518255600182019150602085019450602081019050620004fd565b8683101562000544578489015162000540601f89168262000434565b8355505b6001600288020188555050505b505050505050565b600073ffffffffffffffffffffffffffffffffffffffff82169050919050565b6000620005868262000559565b9050919050565b620005988162000579565b82525050565b6000602082019050620005b560008301846200058d565b92915050565b6136f680620005cb6000396000f3fe6080604052600436106101665760003560e01c8063715018a6116100d1578063dd62ed3e1161008a578063f0dda65c11610064578063f0dda65c14610571578063f1c49c621461059a578063f2fde38b146105d7578063f4048e551461060057610166565b8063dd62ed3e146104e0578063e30e5ae91461051d578063ea9ba5d11461054657610166565b8063715018a6146103cc5780638da5cb5b146103e357806395d89b411461040e578063a9059cbb14610439578063ae73ccec14610476578063cee26ed5146104a357610166565b806323b872dd1161012357806323b872dd1461026c5780632c3c02bf146102a9578063313ce567146102e657806346f3141c1461031157806365d96c821461035057806370a082311461038f57610166565b80630179ea881461016b57806306fdde03146101945780630752881a146101bf578063095ea7b3146101db5780630d1118ce1461021857806318160ddd14610241575b600080fd5b34801561017757600080fd5b50610192600480360381019061018d919061258c565b61062b565b005b3480156101a057600080fd5b506101a9610836565b6040516101b6919061265c565b60405180910390f35b6101d960048036038101906101d491906126dc565b6108c8565b005b3480156101e757600080fd5b5061020260048036038101906101fd91906126dc565b610c2d565b60405161020f9190612737565b60405180910390f35b34801561022457600080fd5b5061023f600480360381019061023a91906126dc565b610c50565b005b34801561024d57600080fd5b50610256610cbe565b6040516102639190612761565b60405180910390f35b34801561027857600080fd5b50610293600480360381019061028e919061277c565b610cc8565b6040516102a09190612737565b60405180910390f35b3480156102b557600080fd5b506102d060048036038101906102cb91906127cf565b610cf7565b6040516102dd919061285c565b60405180910390f35b3480156102f257600080fd5b506102fb610d7f565b6040516103089190612893565b60405180910390f35b34801561031d57600080fd5b50610338600480360381019061033391906126dc565b610d88565b604051610347939291906128bd565b60405180910390f35b34801561035c57600080fd5b50610377600480360381019061037291906127cf565b610e77565b604051610386939291906128fb565b60405180910390f35b34801561039b57600080fd5b506103b660048036038101906103b191906127cf565b610eae565b6040516103c39190612761565b60405180910390f35b3480156103d857600080fd5b506103e1610ef6565b005b3480156103ef57600080fd5b506103f8610f0a565b6040516104059190612932565b60405180910390f35b34801561041a57600080fd5b50610423610f34565b604051610430919061265c565b60405180910390f35b34801561044557600080fd5b50610460600480360381019061045b91906126dc565b610fc6565b60405161046d9190612737565b60405180910390f35b34801561048257600080fd5b5061048b610fe9565b60405161049a93929190612aba565b60405180910390f35b3480156104af57600080fd5b506104ca60048036038101906104c59190612b06565b611436565b6040516104d79190612932565b60405180910390f35b3480156104ec57600080fd5b5061050760048036038101906105029190612b33565b611475565b6040516105149190612761565b60405180910390f35b34801561052957600080fd5b50610544600480360381019061053f919061258c565b6114fc565b005b34801561055257600080fd5b5061055b611736565b6040516105689190612761565b60405180910390f35b34801561057d57600080fd5b50610598600480360381019061059391906126dc565b611939565b005b3480156105a657600080fd5b506105c160048036038101906105bc91906127cf565b61199d565b6040516105ce9190612ccf565b60405180910390f35b3480156105e357600080fd5b506105fe60048036038101906105f991906127cf565b611b2d565b005b34801561060c57600080fd5b50610615611bb3565b6040516106229190612761565b60405180910390f35b600760003373ffffffffffffffffffffffffffffffffffffffff1673ffffffffffffffffffffffffffffffffffffffff16815260200190815260200160002060020160009054906101000a900460ff166106ba576040517f08c379a00000000000000000000000000000000000000000000000000000000081526004016106b190612d63565b60405180910390fd5b816106c433610eae565b1015610705576040517f08c379a00000000000000000000000000000000000000000000000000000000081526004016106fc90612dcf565b60405180910390fd5b6000821180156107155750600081115b610754576040517f08c379a000000000000000000000000000000000000000000000000000000000815260040161074b90612e61565b60405180910390fd5b81600760003373ffffffffffffffffffffffffffffffffffffffff1673ffffffffffffffffffffffffffffffffffffffff1681526020019081526020016000206000018190555080600760003373ffffffffffffffffffffffffffffffffffffffff1673ffffffffffffffffffffffffffffffffffffffff168152602001908152602001600020600101819055503373ffffffffffffffffffffffffffffffffffffffff167f3e11d82182e9689c0f7ffc3ce2a4a057e1fc080032c0dcce9c269258c874a86c838360405161082a929190612e81565b60405180910390a25050565b60606003805461084590612ed9565b80601f016020809104026020016040519081016040528092919081815260200182805461087190612ed9565b80156108be5780601f10610893576101008083540402835291602001916108be565b820191906000526020600020905b8154815290600101906020018083116108a157829003601f168201915b5050505050905090565b600760008373ffffffffffffffffffffffffffffffffffffffff1673ffffffffffffffffffffffffffffffffffffffff16815260200190815260200160002060020160009054906101000a900460ff16610957576040517f08c379a000000000000000000000000000000000000000000000000000000000815260040161094e90612f7c565b60405180910390fd5b80600760008473ffffffffffffffffffffffffffffffffffffffff1673ffffffffffffffffffffffffffffffffffffffff1681526020019081526020016000206000015410156109dc576040517f08c379a00000000000000000000000000000000000000000000000000000000081526004016109d390612fe8565b60405180910390fd5b600081600760008573ffffffffffffffffffffffffffffffffffffffff1673ffffffffffffffffffffffffffffffffffffffff16815260200190815260200160002060010154610a2c9190613037565b9050803414610a70576040517f08c379a0000000000000000000000000000000000000000000000000000000008152600401610a67906130c5565b60405180910390fd5b610a7b833384611bc0565b81600760008573ffffffffffffffffffffffffffffffffffffffff1673ffffffffffffffffffffffffffffffffffffffff1681526020019081526020016000206000016000828254610acd91906130e5565b925050819055506000600760008573ffffffffffffffffffffffffffffffffffffffff1673ffffffffffffffffffffffffffffffffffffffff1681526020019081526020016000206000015403610b7a576000600760008573ffffffffffffffffffffffffffffffffffffffff1673ffffffffffffffffffffffffffffffffffffffff16815260200190815260200160002060020160006101000a81548160ff0219169083151502179055505b8273ffffffffffffffffffffffffffffffffffffffff166108fc349081150290604051600060405180830381858888f19350505050158015610bc0573d6000803e3d6000fd5b508273ffffffffffffffffffffffffffffffffffffffff163373ffffffffffffffffffffffffffffffffffffffff167f6faf93231a456e552dbc9961f58d9713ee4f2e69d15f1975b050ef0911053a7b8484604051610c20929190612e81565b60405180910390a3505050565b600080610c38611cb4565b9050610c45818585611cbc565b600191505092915050565b610c58611cce565b610c628282611d55565b8173ffffffffffffffffffffffffffffffffffffffff167ffd38818f5291bf0bb3a2a48aadc06ba8757865d1dabd804585338aab3009dcb682604051610ca89190612761565b60405180910390a2610cba8282611dd7565b5050565b6000600254905090565b600080610cd3611cb4565b9050610ce0858285611f56565b610ceb858585611bc0565b60019150509392505050565b610cff61252e565b600760008373ffffffffffffffffffffffffffffffffffffffff1673ffffffffffffffffffffffffffffffffffffffff16815260200190815260200160002060405180606001604052908160008201548152602001600182015481526020016002820160009054906101000a900460ff1615151515815250509050919050565b60006012905090565b60066020528160005260406000208181548110610da457600080fd5b906000526020600020906003020160009150915050806000018054610dc890612ed9565b80601f0160208091040260200160405190810160405280929190818152602001828054610df490612ed9565b8015610e415780601f10610e1657610100808354040283529160200191610e41565b820191906000526020600020905b815481529060010190602001808311610e2457829003601f168201915b5050505050908060010154908060020160009054906101000a900473ffffffffffffffffffffffffffffffffffffffff16905083565b60076020528060005260406000206000915090508060000154908060010154908060020160009054906101000a900460ff16905083565b60008060008373ffffffffffffffffffffffffffffffffffffffff1673ffffffffffffffffffffffffffffffffffffffff168152602001908152602001600020549050919050565b610efe611cce565b610f086000611fea565b565b6000600560009054906101000a900473ffffffffffffffffffffffffffffffffffffffff16905090565b606060048054610f4390612ed9565b80601f0160208091040260200160405190810160405280929190818152602001828054610f6f90612ed9565b8015610fbc5780601f10610f9157610100808354040283529160200191610fbc565b820191906000526020600020905b815481529060010190602001808311610f9f57829003601f168201915b5050505050905090565b600080610fd1611cb4565b9050610fde818585611bc0565b600191505092915050565b60608060606000805b6008805490508110156110ae57600760006008838154811061101757611016613119565b5b9060005260206000200160009054906101000a900473ffffffffffffffffffffffffffffffffffffffff1673ffffffffffffffffffffffffffffffffffffffff1673ffffffffffffffffffffffffffffffffffffffff16815260200190815260200160002060020160009054906101000a900460ff16156110a157818061109d90613148565b9250505b8080600101915050610ff2565b5060008167ffffffffffffffff8111156110cb576110ca613190565b5b6040519080825280602002602001820160405280156110f95781602001602082028036833780820191505090505b50905060008267ffffffffffffffff81111561111857611117613190565b5b6040519080825280602002602001820160405280156111465781602001602082028036833780820191505090505b50905060008367ffffffffffffffff81111561116557611164613190565b5b6040519080825280602002602001820160405280156111935781602001602082028036833780820191505090505b5090506000805b6008805490508110156114225760076000600883815481106111bf576111be613119565b5b9060005260206000200160009054906101000a900473ffffffffffffffffffffffffffffffffffffffff1673ffffffffffffffffffffffffffffffffffffffff1673ffffffffffffffffffffffffffffffffffffffff16815260200190815260200160002060020160009054906101000a900460ff1615611415576008818154811061124e5761124d613119565b5b9060005260206000200160009054906101000a900473ffffffffffffffffffffffffffffffffffffffff1685838151811061128c5761128b613119565b5b602002602001019073ffffffffffffffffffffffffffffffffffffffff16908173ffffffffffffffffffffffffffffffffffffffff168152505060076000600883815481106112de576112dd613119565b5b9060005260206000200160009054906101000a900473ffffffffffffffffffffffffffffffffffffffff1673ffffffffffffffffffffffffffffffffffffffff1673ffffffffffffffffffffffffffffffffffffffff1681526020019081526020016000206000015484838151811061135a57611359613119565b5b602002602001018181525050600760006008838154811061137e5761137d613119565b5b9060005260206000200160009054906101000a900473ffffffffffffffffffffffffffffffffffffffff1673ffffffffffffffffffffffffffffffffffffffff1673ffffffffffffffffffffffffffffffffffffffff168152602001908152602001600020600101548383815181106113fa576113f9613119565b5b602002602001018181525050818061141190613148565b9250505b808060010191505061119a565b508383839750975097505050505050909192565b6008818154811061144657600080fd5b906000526020600020016000915054906101000a900473ffffffffffffffffffffffffffffffffffffffff1681565b6000600160008473ffffffffffffffffffffffffffffffffffffffff1673ffffffffffffffffffffffffffffffffffffffff16815260200190815260200160002060008373ffffffffffffffffffffffffffffffffffffffff1673ffffffffffffffffffffffffffffffffffffffff16815260200190815260200160002054905092915050565b8161150633610eae565b1015611547576040517f08c379a000000000000000000000000000000000000000000000000000000000815260040161153e90612dcf565b60405180910390fd5b6000821180156115575750600081115b611596576040517f08c379a000000000000000000000000000000000000000000000000000000000815260040161158d90612e61565b60405180910390fd5b600760003373ffffffffffffffffffffffffffffffffffffffff1673ffffffffffffffffffffffffffffffffffffffff16815260200190815260200160002060020160009054906101000a900460ff1661164e576008339080600181540180825580915050600190039060005260206000200160009091909190916101000a81548173ffffffffffffffffffffffffffffffffffffffff021916908373ffffffffffffffffffffffffffffffffffffffff1602179055505b604051806060016040528083815260200182815260200160011515815250600760003373ffffffffffffffffffffffffffffffffffffffff1673ffffffffffffffffffffffffffffffffffffffff168152602001908152602001600020600082015181600001556020820151816001015560408201518160020160006101000a81548160ff0219169083151502179055509050503373ffffffffffffffffffffffffffffffffffffffff167fcf412bfe866866664047e9f9e38cc21c13173a37c85de5d29b65f1822231ec00838360405161172a929190612e81565b60405180910390a25050565b600080600090506000805b6008805490508110156118e25760006008828154811061176457611763613119565b5b9060005260206000200160009054906101000a900473ffffffffffffffffffffffffffffffffffffffff169050600760008273ffffffffffffffffffffffffffffffffffffffff1673ffffffffffffffffffffffffffffffffffffffff16815260200190815260200160002060020160009054906101000a900460ff16156118d457600760008273ffffffffffffffffffffffffffffffffffffffff1673ffffffffffffffffffffffffffffffffffffffff168152602001908152602001600020600001548461183491906131bf565b9350600760008273ffffffffffffffffffffffffffffffffffffffff1673ffffffffffffffffffffffffffffffffffffffff16815260200190815260200160002060010154600760008373ffffffffffffffffffffffffffffffffffffffff1673ffffffffffffffffffffffffffffffffffffffff168152602001908152602001600020600001546118c69190613037565b836118d191906131bf565b92505b508080600101915050611741565b5060008211611926576040517f08c379a000000000000000000000000000000000000000000000000000000000815260040161191d9061323f565b60405180910390fd5b8181611932919061328e565b9250505090565b611941611cce565b61194b82826120b0565b8173ffffffffffffffffffffffffffffffffffffffff167f3f2c9d57c068687834f0de942a9babb9e5acab57d516d3480a3c16ee165a4273826040516119919190612761565b60405180910390a25050565b6060600660008373ffffffffffffffffffffffffffffffffffffffff1673ffffffffffffffffffffffffffffffffffffffff168152602001908152602001600020805480602002602001604051908101604052809291908181526020016000905b82821015611b225783829060005260206000209060030201604051806060016040529081600082018054611a3190612ed9565b80601f0160208091040260200160405190810160405280929190818152602001828054611a5d90612ed9565b8015611aaa5780601f10611a7f57610100808354040283529160200191611aaa565b820191906000526020600020905b815481529060010190602001808311611a8d57829003601f168201915b50505050508152602001600182015481526020016002820160009054906101000a900473ffffffffffffffffffffffffffffffffffffffff1673ffffffffffffffffffffffffffffffffffffffff1673ffffffffffffffffffffffffffffffffffffffff1681525050815260200190600101906119fe565b505050509050919050565b611b35611cce565b600073ffffffffffffffffffffffffffffffffffffffff168173ffffffffffffffffffffffffffffffffffffffff1603611ba75760006040517f1e4fbdf7000000000000000000000000000000000000000000000000000000008152600401611b9e9190612932565b60405180910390fd5b611bb081611fea565b50565b6000600880549050905090565b600073ffffffffffffffffffffffffffffffffffffffff168373ffffffffffffffffffffffffffffffffffffffff1603611c325760006040517f96c6fd1e000000000000000000000000000000000000000000000000000000008152600401611c299190612932565b60405180910390fd5b600073ffffffffffffffffffffffffffffffffffffffff168273ffffffffffffffffffffffffffffffffffffffff1603611ca45760006040517fec442f05000000000000000000000000000000000000000000000000000000008152600401611c9b9190612932565b60405180910390fd5b611caf838383612132565b505050565b600033905090565b611cc98383836001612357565b505050565b611cd6611cb4565b73ffffffffffffffffffffffffffffffffffffffff16611cf4610f0a565b73ffffffffffffffffffffffffffffffffffffffff1614611d5357611d17611cb4565b6040517f118cdaa7000000000000000000000000000000000000000000000000000000008152600401611d4a9190612932565b60405180910390fd5b565b600073ffffffffffffffffffffffffffffffffffffffff168273ffffffffffffffffffffffffffffffffffffffff1603611dc75760006040517f96c6fd1e000000000000000000000000000000000000000000000000000000008152600401611dbe9190612932565b60405180910390fd5b611dd382600083612132565b5050565b600081604051602001611dea91906133cf565b6040516020818303038152906040529050600060405180606001604052808381526020014281526020018573ffffffffffffffffffffffffffffffffffffffff168152509050600660008573ffffffffffffffffffffffffffffffffffffffff1673ffffffffffffffffffffffffffffffffffffffff1681526020019081526020016000208190806001815401808255809150506001900390600052602060002090600302016000909190919091506000820151816000019081611eae91906135b7565b506020820151816001015560408201518160020160006101000a81548173ffffffffffffffffffffffffffffffffffffffff021916908373ffffffffffffffffffffffffffffffffffffffff16021790555050508373ffffffffffffffffffffffffffffffffffffffff167f4514a45e6f56567008e790fe2158e66d34e8b8254c060ad061d570274879147983604051611f48919061265c565b60405180910390a250505050565b6000611f628484611475565b90507fffffffffffffffffffffffffffffffffffffffffffffffffffffffffffffffff8114611fe45781811015611fd4578281836040517ffb8f41b2000000000000000000000000000000000000000000000000000000008152600401611fcb93929190613689565b60405180910390fd5b611fe384848484036000612357565b5b50505050565b6000600560009054906101000a900473ffffffffffffffffffffffffffffffffffffffff16905081600560006101000a81548173ffffffffffffffffffffffffffffffffffffffff021916908373ffffffffffffffffffffffffffffffffffffffff1602179055508173ffffffffffffffffffffffffffffffffffffffff168173ffffffffffffffffffffffffffffffffffffffff167f8be0079c531659141344cd1fd0a4f28419497f9722a3daafe3b4186f6b6457e060405160405180910390a35050565b600073ffffffffffffffffffffffffffffffffffffffff168273ffffffffffffffffffffffffffffffffffffffff16036121225760006040517fec442f050000000000000000000000000000000000000000000000000000000081526004016121199190612932565b60405180910390fd5b61212e60008383612132565b5050565b600073ffffffffffffffffffffffffffffffffffffffff168373ffffffffffffffffffffffffffffffffffffffff160361218457806002600082825461217891906131bf565b92505081905550612257565b60008060008573ffffffffffffffffffffffffffffffffffffffff1673ffffffffffffffffffffffffffffffffffffffff16815260200190815260200160002054905081811015612210578381836040517fe450d38c00000000000000000000000000000000000000000000000000000000815260040161220793929190613689565b60405180910390fd5b8181036000808673ffffffffffffffffffffffffffffffffffffffff1673ffffffffffffffffffffffffffffffffffffffff16815260200190815260200160002081905550505b600073ffffffffffffffffffffffffffffffffffffffff168273ffffffffffffffffffffffffffffffffffffffff16036122a057806002600082825403925050819055506122ed565b806000808473ffffffffffffffffffffffffffffffffffffffff1673ffffffffffffffffffffffffffffffffffffffff168152602001908152602001600020600082825401925050819055505b8173ffffffffffffffffffffffffffffffffffffffff168373ffffffffffffffffffffffffffffffffffffffff167fddf252ad1be2c89b69c2b068fc378daa952ba7f163c4a11628f55a4df523b3ef8360405161234a9190612761565b60405180910390a3505050565b600073ffffffffffffffffffffffffffffffffffffffff168473ffffffffffffffffffffffffffffffffffffffff16036123c95760006040517fe602df050000000000000000000000000000000000000000000000000000000081526004016123c09190612932565b60405180910390fd5b600073ffffffffffffffffffffffffffffffffffffffff168373ffffffffffffffffffffffffffffffffffffffff160361243b5760006040517f94280d620000000000000000000000000000000000000000000000000000000081526004016124329190612932565b60405180910390fd5b81600160008673ffffffffffffffffffffffffffffffffffffffff1673ffffffffffffffffffffffffffffffffffffffff16815260200190815260200160002060008573ffffffffffffffffffffffffffffffffffffffff1673ffffffffffffffffffffffffffffffffffffffff168152602001908152602001600020819055508015612528578273ffffffffffffffffffffffffffffffffffffffff168473ffffffffffffffffffffffffffffffffffffffff167f8c5be1e5ebec7d5bd14f71427d1e84f3dd0314c0f7b2291e5b200ac8c7c3b9258460405161251f9190612761565b60405180910390a35b50505050565b604051806060016040528060008152602001600081526020016000151581525090565b600080fd5b6000819050919050565b61256981612556565b811461257457600080fd5b50565b60008135905061258681612560565b92915050565b600080604083850312156125a3576125a2612551565b5b60006125b185828601612577565b92505060206125c285828601612577565b9150509250929050565b600081519050919050565b600082825260208201905092915050565b60005b838110156126065780820151818401526020810190506125eb565b60008484015250505050565b6000601f19601f8301169050919050565b600061262e826125cc565b61263881856125d7565b93506126488185602086016125e8565b61265181612612565b840191505092915050565b600060208201905081810360008301526126768184612623565b905092915050565b600073ffffffffffffffffffffffffffffffffffffffff82169050919050565b60006126a98261267e565b9050919050565b6126b98161269e565b81146126c457600080fd5b50565b6000813590506126d6816126b0565b92915050565b600080604083850312156126f3576126f2612551565b5b6000612701858286016126c7565b925050602061271285828601612577565b9150509250929050565b60008115159050919050565b6127318161271c565b82525050565b600060208201905061274c6000830184612728565b92915050565b61275b81612556565b82525050565b60006020820190506127766000830184612752565b92915050565b60008060006060848603121561279557612794612551565b5b60006127a3868287016126c7565b93505060206127b4868287016126c7565b92505060406127c586828701612577565b9150509250925092565b6000602082840312156127e5576127e4612551565b5b60006127f3848285016126c7565b91505092915050565b61280581612556565b82525050565b6128148161271c565b82525050565b60608201600082015161283060008501826127fc565b50602082015161284360208501826127fc565b506040820151612856604085018261280b565b50505050565b6000606082019050612871600083018461281a565b92915050565b600060ff82169050919050565b61288d81612877565b82525050565b60006020820190506128a86000830184612884565b92915050565b6128b78161269e565b82525050565b600060608201905081810360008301526128d78186612623565b90506128e66020830185612752565b6128f360408301846128ae565b949350505050565b60006060820190506129106000830186612752565b61291d6020830185612752565b61292a6040830184612728565b949350505050565b600060208201905061294760008301846128ae565b92915050565b600081519050919050565b600082825260208201905092915050565b6000819050602082019050919050565b6129828161269e565b82525050565b60006129948383612979565b60208301905092915050565b6000602082019050919050565b60006129b88261294d565b6129c28185612958565b93506129cd83612969565b8060005b838110156129fe5781516129e58882612988565b97506129f0836129a0565b9250506001810190506129d1565b5085935050505092915050565b600081519050919050565b600082825260208201905092915050565b6000819050602082019050919050565b6000612a4383836127fc565b60208301905092915050565b6000602082019050919050565b6000612a6782612a0b565b612a718185612a16565b9350612a7c83612a27565b8060005b83811015612aad578151612a948882612a37565b9750612a9f83612a4f565b925050600181019050612a80565b5085935050505092915050565b60006060820190508181036000830152612ad481866129ad565b90508181036020830152612ae88185612a5c565b90508181036040830152612afc8184612a5c565b9050949350505050565b600060208284031215612b1c57612b1b612551565b5b6000612b2a84828501612577565b91505092915050565b60008060408385031215612b4a57612b49612551565b5b6000612b58858286016126c7565b9250506020612b69858286016126c7565b9150509250929050565b600081519050919050565b600082825260208201905092915050565b6000819050602082019050919050565b600082825260208201905092915050565b6000612bbb826125cc565b612bc58185612b9f565b9350612bd58185602086016125e8565b612bde81612612565b840191505092915050565b60006060830160008301518482036000860152612c068282612bb0565b9150506020830151612c1b60208601826127fc565b506040830151612c2e6040860182612979565b508091505092915050565b6000612c458383612be9565b905092915050565b6000602082019050919050565b6000612c6582612b73565b612c6f8185612b7e565b935083602082028501612c8185612b8f565b8060005b85811015612cbd5784840389528151612c9e8582612c39565b9450612ca983612c4d565b925060208a01995050600181019050612c85565b50829750879550505050505092915050565b60006020820190508181036000830152612ce98184612c5a565b905092915050565b7f596f7520646f206e6f74206861766520616e20616374697665206c697374696e60008201527f6700000000000000000000000000000000000000000000000000000000000000602082015250565b6000612d4d6021836125d7565b9150612d5882612cf1565b604082019050919050565b60006020820190508181036000830152612d7c81612d40565b9050919050565b7f496e73756666696369656e7420746f6b656e2062616c616e6365000000000000600082015250565b6000612db9601a836125d7565b9150612dc482612d83565b602082019050919050565b60006020820190508181036000830152612de881612dac565b9050919050565b7f416d6f756e7420616e64207072696365206d757374206265206772656174657260008201527f207468616e207a65726f00000000000000000000000000000000000000000000602082015250565b6000612e4b602a836125d7565b9150612e5682612def565b604082019050919050565b60006020820190508181036000830152612e7a81612e3e565b9050919050565b6000604082019050612e966000830185612752565b612ea36020830184612752565b9392505050565b7f4e487b7100000000000000000000000000000000000000000000000000000000600052602260045260246000fd5b60006002820490506001821680612ef157607f821691505b602082108103612f0457612f03612eaa565b5b50919050565b7f53656c6c657220646f6573206e6f74206861766520616e20616374697665206c60008201527f697374696e670000000000000000000000000000000000000000000000000000602082015250565b6000612f666026836125d7565b9150612f7182612f0a565b604082019050919050565b60006020820190508181036000830152612f9581612f59565b9050919050565b7f4e6f7420656e6f75676820746f6b656e73206c69737465640000000000000000600082015250565b6000612fd26018836125d7565b9150612fdd82612f9c565b602082019050919050565b6000602082019050818103600083015261300181612fc5565b9050919050565b7f4e487b7100000000000000000000000000000000000000000000000000000000600052601160045260246000fd5b600061304282612556565b915061304d83612556565b925082820261305b81612556565b9150828204841483151761307257613071613008565b5b5092915050565b7f496e636f72726563742045544820616d6f756e742073656e7400000000000000600082015250565b60006130af6019836125d7565b91506130ba82613079565b602082019050919050565b600060208201905081810360008301526130de816130a2565b9050919050565b60006130f082612556565b91506130fb83612556565b925082820390508181111561311357613112613008565b5b92915050565b7f4e487b7100000000000000000000000000000000000000000000000000000000600052603260045260246000fd5b600061315382612556565b91507fffffffffffffffffffffffffffffffffffffffffffffffffffffffffffffffff820361318557613184613008565b5b600182019050919050565b7f4e487b7100000000000000000000000000000000000000000000000000000000600052604160045260246000fd5b60006131ca82612556565b91506131d583612556565b92508282019050808211156131ed576131ec613008565b5b92915050565b7f4e6f20746f6b656e73206c697374656420666f722073616c6500000000000000600082015250565b60006132296019836125d7565b9150613234826131f3565b602082019050919050565b600060208201905081810360008301526132588161321c565b9050919050565b7f4e487b7100000000000000000000000000000000000000000000000000000000600052601260045260246000fd5b600061329982612556565b91506132a483612556565b9250826132b4576132b361325f565b5b828204905092915050565b600081905092915050565b7f43657274696669636174653a2000000000000000000000000000000000000000600082015250565b6000613300600d836132bf565b915061330b826132ca565b600d82019050919050565b7f50726f6a65637420617070726f7665642e200000000000000000000000000000600082015250565b600061334c6012836132bf565b915061335782613316565b601282019050919050565b6000819050919050565b61337d61337882612556565b613362565b82525050565b7f20746f6b656e73206275726e6564207375636365737366756c6c792e00000000600082015250565b60006133b9601c836132bf565b91506133c482613383565b601c82019050919050565b60006133da826132f3565b91506133e58261333f565b91506133f1828461336c565b602082019150613400826133ac565b915081905092915050565b60008190508160005260206000209050919050565b60006020601f8301049050919050565b600082821b905092915050565b60006008830261346d7fffffffffffffffffffffffffffffffffffffffffffffffffffffffffffffffff82613430565b6134778683613430565b95508019841693508086168417925050509392505050565b6000819050919050565b60006134b46134af6134aa84612556565b61348f565b612556565b9050919050565b6000819050919050565b6134ce83613499565b6134e26134da826134bb565b84845461343d565b825550505050565b600090565b6134f76134ea565b6135028184846134c5565b505050565b5b818110156135265761351b6000826134ef565b600181019050613508565b5050565b601f82111561356b5761353c8161340b565b61354584613420565b81016020851015613554578190505b61356861356085613420565b830182613507565b50505b505050565b600082821c905092915050565b600061358e60001984600802613570565b1980831691505092915050565b60006135a7838361357d565b9150826002028217905092915050565b6135c0826125cc565b67ffffffffffffffff8111156135d9576135d8613190565b5b6135e38254612ed9565b6135ee82828561352a565b600060209050601f831160018114613621576000841561360f578287015190505b613619858261359b565b865550613681565b601f19841661362f8661340b565b60005b8281101561365757848901518255600182019150602085019450602081019050613632565b868310156136745784890151613670601f89168261357d565b8355505b6001600288020188555050505b505050505050565b600060608201905061369e60008301866128ae565b6136ab6020830185612752565b6136b86040830184612752565b94935050505056fea264697066735822122069424f27962320b12db3eb131c874c57549f80ef0e650e3b85ab92063aa8ddff64736f6c63430008180033",
  "linkReferences": {},
  "deployedLinkReferences": {}
}